{
  "_format": "hh-sol-artifact-1",
  "contractName": "SocialWeb3",
  "sourceName": "contracts/SocialWeb3.sol",
  "abi": [
    {
      "inputs": [],
      "stateMutability": "nonpayable",
      "type": "constructor"
    },
    {
      "anonymous": false,
      "inputs": [
        {
          "indexed": true,
          "internalType": "address",
          "name": "owner",
          "type": "address"
        },
        {
          "indexed": true,
          "internalType": "address",
          "name": "approved",
          "type": "address"
        },
        {
          "indexed": true,
          "internalType": "uint256",
          "name": "tokenId",
          "type": "uint256"
        }
      ],
      "name": "Approval",
      "type": "event"
    },
    {
      "anonymous": false,
      "inputs": [
        {
          "indexed": true,
          "internalType": "address",
          "name": "owner",
          "type": "address"
        },
        {
          "indexed": true,
          "internalType": "address",
          "name": "operator",
          "type": "address"
        },
        {
          "indexed": false,
          "internalType": "bool",
          "name": "approved",
          "type": "bool"
        }
      ],
      "name": "ApprovalForAll",
      "type": "event"
    },
    {
      "anonymous": false,
      "inputs": [
        {
          "components": [
            {
              "internalType": "address",
              "name": "owner",
              "type": "address"
            },
            {
              "internalType": "string",
              "name": "handle",
              "type": "string"
            },
            {
              "internalType": "string",
              "name": "name",
              "type": "string"
            },
            {
              "internalType": "string",
              "name": "imageURI",
              "type": "string"
            },
            {
              "internalType": "string",
              "name": "bio",
              "type": "string"
            }
          ],
          "indexed": false,
          "internalType": "struct SocialWeb3.ProfileNFTData",
          "name": "profileNFTData",
          "type": "tuple"
        }
      ],
      "name": "CreateProfileNFT",
      "type": "event"
    },
    {
      "anonymous": false,
      "inputs": [
        {
          "indexed": true,
          "internalType": "address",
          "name": "previousOwner",
          "type": "address"
        },
        {
          "indexed": true,
          "internalType": "address",
          "name": "newOwner",
          "type": "address"
        }
      ],
      "name": "OwnershipTransferred",
      "type": "event"
    },
    {
      "anonymous": false,
      "inputs": [
        {
          "indexed": true,
          "internalType": "address",
          "name": "from",
          "type": "address"
        },
        {
          "indexed": true,
          "internalType": "address",
          "name": "to",
          "type": "address"
        },
        {
          "indexed": true,
          "internalType": "uint256",
          "name": "tokenId",
          "type": "uint256"
        }
      ],
      "name": "Transfer",
      "type": "event"
    },
    {
      "anonymous": false,
      "inputs": [
        {
          "indexed": false,
          "internalType": "uint256",
          "name": "profileId",
          "type": "uint256"
        },
        {
          "components": [
            {
              "internalType": "address",
              "name": "owner",
              "type": "address"
            },
            {
              "internalType": "string",
              "name": "handle",
              "type": "string"
            },
            {
              "internalType": "string",
              "name": "name",
              "type": "string"
            },
            {
              "internalType": "string",
              "name": "imageURI",
              "type": "string"
            },
            {
              "internalType": "string",
              "name": "bio",
              "type": "string"
            }
          ],
          "indexed": false,
          "internalType": "struct SocialWeb3.ProfileNFTData",
          "name": "profileData",
          "type": "tuple"
        }
      ],
      "name": "UpdateProfile",
      "type": "event"
    },
    {
      "inputs": [
        {
          "internalType": "address",
          "name": "to",
          "type": "address"
        },
        {
          "internalType": "uint256",
          "name": "tokenId",
          "type": "uint256"
        }
      ],
      "name": "approve",
      "outputs": [],
      "stateMutability": "nonpayable",
      "type": "function"
    },
    {
      "inputs": [
        {
          "internalType": "address",
          "name": "owner",
          "type": "address"
        }
      ],
      "name": "balanceOf",
      "outputs": [
        {
          "internalType": "uint256",
          "name": "",
          "type": "uint256"
        }
      ],
      "stateMutability": "view",
      "type": "function"
    },
    {
      "inputs": [
        {
          "components": [
            {
              "internalType": "address",
              "name": "owner",
              "type": "address"
            },
            {
              "internalType": "string",
              "name": "handle",
              "type": "string"
            },
            {
              "internalType": "string",
              "name": "name",
              "type": "string"
            },
            {
              "internalType": "string",
              "name": "imageURI",
              "type": "string"
            },
            {
              "internalType": "string",
              "name": "bio",
              "type": "string"
            }
          ],
          "internalType": "struct SocialWeb3.ProfileNFTData",
          "name": "_profileNFTData",
          "type": "tuple"
        }
      ],
      "name": "createProfileNFT",
      "outputs": [],
      "stateMutability": "nonpayable",
      "type": "function"
    },
    {
      "inputs": [
        {
          "internalType": "uint256",
          "name": "tokenId",
          "type": "uint256"
        }
      ],
      "name": "getApproved",
      "outputs": [
        {
          "internalType": "address",
          "name": "",
          "type": "address"
        }
      ],
      "stateMutability": "view",
      "type": "function"
    },
    {
      "inputs": [
        {
          "internalType": "uint256",
          "name": "_profileId",
          "type": "uint256"
        }
      ],
      "name": "getProfileNFTData",
      "outputs": [
        {
          "components": [
            {
              "internalType": "address",
              "name": "owner",
              "type": "address"
            },
            {
              "internalType": "string",
              "name": "handle",
              "type": "string"
            },
            {
              "internalType": "string",
              "name": "name",
              "type": "string"
            },
            {
              "internalType": "string",
              "name": "imageURI",
              "type": "string"
            },
            {
              "internalType": "string",
              "name": "bio",
              "type": "string"
            }
          ],
          "internalType": "struct SocialWeb3.ProfileNFTData",
          "name": "",
          "type": "tuple"
        }
      ],
      "stateMutability": "view",
      "type": "function"
    },
    {
      "inputs": [
        {
          "internalType": "address",
          "name": "owner",
          "type": "address"
        },
        {
          "internalType": "address",
          "name": "operator",
          "type": "address"
        }
      ],
      "name": "isApprovedForAll",
      "outputs": [
        {
          "internalType": "bool",
          "name": "",
          "type": "bool"
        }
      ],
      "stateMutability": "view",
      "type": "function"
    },
    {
      "inputs": [],
      "name": "name",
      "outputs": [
        {
          "internalType": "string",
          "name": "",
          "type": "string"
        }
      ],
      "stateMutability": "view",
      "type": "function"
    },
    {
      "inputs": [],
      "name": "owner",
      "outputs": [
        {
          "internalType": "address",
          "name": "",
          "type": "address"
        }
      ],
      "stateMutability": "view",
      "type": "function"
    },
    {
      "inputs": [
        {
          "internalType": "uint256",
          "name": "tokenId",
          "type": "uint256"
        }
      ],
      "name": "ownerOf",
      "outputs": [
        {
          "internalType": "address",
          "name": "",
          "type": "address"
        }
      ],
      "stateMutability": "view",
      "type": "function"
    },
    {
      "inputs": [],
      "name": "profileId",
      "outputs": [
        {
          "internalType": "uint256",
          "name": "",
          "type": "uint256"
        }
      ],
      "stateMutability": "view",
      "type": "function"
    },
    {
      "inputs": [
        {
          "internalType": "uint256",
          "name": "",
          "type": "uint256"
        }
      ],
      "name": "profileNFTData",
      "outputs": [
        {
          "internalType": "address",
          "name": "owner",
          "type": "address"
        },
        {
          "internalType": "string",
          "name": "handle",
          "type": "string"
        },
        {
          "internalType": "string",
          "name": "name",
          "type": "string"
        },
        {
          "internalType": "string",
          "name": "imageURI",
          "type": "string"
        },
        {
          "internalType": "string",
          "name": "bio",
          "type": "string"
        }
      ],
      "stateMutability": "view",
      "type": "function"
    },
    {
      "inputs": [],
      "name": "renounceOwnership",
      "outputs": [],
      "stateMutability": "nonpayable",
      "type": "function"
    },
    {
      "inputs": [
        {
          "internalType": "address",
          "name": "from",
          "type": "address"
        },
        {
          "internalType": "address",
          "name": "to",
          "type": "address"
        },
        {
          "internalType": "uint256",
          "name": "tokenId",
          "type": "uint256"
        }
      ],
      "name": "safeTransferFrom",
      "outputs": [],
      "stateMutability": "nonpayable",
      "type": "function"
    },
    {
      "inputs": [
        {
          "internalType": "address",
          "name": "from",
          "type": "address"
        },
        {
          "internalType": "address",
          "name": "to",
          "type": "address"
        },
        {
          "internalType": "uint256",
          "name": "tokenId",
          "type": "uint256"
        },
        {
          "internalType": "bytes",
          "name": "data",
          "type": "bytes"
        }
      ],
      "name": "safeTransferFrom",
      "outputs": [],
      "stateMutability": "nonpayable",
      "type": "function"
    },
    {
      "inputs": [
        {
          "internalType": "address",
          "name": "operator",
          "type": "address"
        },
        {
          "internalType": "bool",
          "name": "approved",
          "type": "bool"
        }
      ],
      "name": "setApprovalForAll",
      "outputs": [],
      "stateMutability": "nonpayable",
      "type": "function"
    },
    {
      "inputs": [
        {
          "internalType": "bytes4",
          "name": "interfaceId",
          "type": "bytes4"
        }
      ],
      "name": "supportsInterface",
      "outputs": [
        {
          "internalType": "bool",
          "name": "",
          "type": "bool"
        }
      ],
      "stateMutability": "view",
      "type": "function"
    },
    {
      "inputs": [],
      "name": "symbol",
      "outputs": [
        {
          "internalType": "string",
          "name": "",
          "type": "string"
        }
      ],
      "stateMutability": "view",
      "type": "function"
    },
    {
      "inputs": [
        {
          "internalType": "uint256",
          "name": "index",
          "type": "uint256"
        }
      ],
      "name": "tokenByIndex",
      "outputs": [
        {
          "internalType": "uint256",
          "name": "",
          "type": "uint256"
        }
      ],
      "stateMutability": "view",
      "type": "function"
    },
    {
      "inputs": [
        {
          "internalType": "address",
          "name": "owner",
          "type": "address"
        },
        {
          "internalType": "uint256",
          "name": "index",
          "type": "uint256"
        }
      ],
      "name": "tokenOfOwnerByIndex",
      "outputs": [
        {
          "internalType": "uint256",
          "name": "",
          "type": "uint256"
        }
      ],
      "stateMutability": "view",
      "type": "function"
    },
    {
      "inputs": [
        {
          "internalType": "uint256",
          "name": "tokenId",
          "type": "uint256"
        }
      ],
      "name": "tokenURI",
      "outputs": [
        {
          "internalType": "string",
          "name": "",
          "type": "string"
        }
      ],
      "stateMutability": "view",
      "type": "function"
    },
    {
      "inputs": [],
      "name": "totalSupply",
      "outputs": [
        {
          "internalType": "uint256",
          "name": "",
          "type": "uint256"
        }
      ],
      "stateMutability": "view",
      "type": "function"
    },
    {
      "inputs": [
        {
          "internalType": "address",
          "name": "from",
          "type": "address"
        },
        {
          "internalType": "address",
          "name": "to",
          "type": "address"
        },
        {
          "internalType": "uint256",
          "name": "tokenId",
          "type": "uint256"
        }
      ],
      "name": "transferFrom",
      "outputs": [],
      "stateMutability": "nonpayable",
      "type": "function"
    },
    {
      "inputs": [
        {
          "internalType": "address",
          "name": "newOwner",
          "type": "address"
        }
      ],
      "name": "transferOwnership",
      "outputs": [],
      "stateMutability": "nonpayable",
      "type": "function"
    },
    {
      "inputs": [
        {
          "internalType": "uint256",
          "name": "_profileId",
          "type": "uint256"
        },
        {
          "components": [
            {
              "internalType": "address",
              "name": "owner",
              "type": "address"
            },
            {
              "internalType": "string",
              "name": "handle",
              "type": "string"
            },
            {
              "internalType": "string",
              "name": "name",
              "type": "string"
            },
            {
              "internalType": "string",
              "name": "imageURI",
              "type": "string"
            },
            {
              "internalType": "string",
              "name": "bio",
              "type": "string"
            }
          ],
          "internalType": "struct SocialWeb3.ProfileNFTData",
          "name": "_newProfileData",
          "type": "tuple"
        }
      ],
      "name": "updateProfile",
      "outputs": [],
      "stateMutability": "nonpayable",
      "type": "function"
    }
  ],
  "bytecode": "0x60806040523480156200001157600080fd5b506040518060400160405280600a81526020017f536f6369616c57656233000000000000000000000000000000000000000000008152506040518060400160405280600381526020017f53573300000000000000000000000000000000000000000000000000000000008152506200009e62000092620000ca60201b60201c565b620000d260201b60201c565b8160019081620000af919062000410565b508060029081620000c1919062000410565b505050620004f7565b600033905090565b60008060009054906101000a900473ffffffffffffffffffffffffffffffffffffffff169050816000806101000a81548173ffffffffffffffffffffffffffffffffffffffff021916908373ffffffffffffffffffffffffffffffffffffffff1602179055508173ffffffffffffffffffffffffffffffffffffffff168173ffffffffffffffffffffffffffffffffffffffff167f8be0079c531659141344cd1fd0a4f28419497f9722a3daafe3b4186f6b6457e060405160405180910390a35050565b600081519050919050565b7f4e487b7100000000000000000000000000000000000000000000000000000000600052604160045260246000fd5b7f4e487b7100000000000000000000000000000000000000000000000000000000600052602260045260246000fd5b600060028204905060018216806200021857607f821691505b6020821081036200022e576200022d620001d0565b5b50919050565b60008190508160005260206000209050919050565b60006020601f8301049050919050565b600082821b905092915050565b600060088302620002987fffffffffffffffffffffffffffffffffffffffffffffffffffffffffffffffff8262000259565b620002a4868362000259565b95508019841693508086168417925050509392505050565b6000819050919050565b6000819050919050565b6000620002f1620002eb620002e584620002bc565b620002c6565b620002bc565b9050919050565b6000819050919050565b6200030d83620002d0565b620003256200031c82620002f8565b84845462000266565b825550505050565b600090565b6200033c6200032d565b6200034981848462000302565b505050565b5b8181101562000371576200036560008262000332565b6001810190506200034f565b5050565b601f821115620003c0576200038a8162000234565b620003958462000249565b81016020851015620003a5578190505b620003bd620003b48562000249565b8301826200034e565b50505b505050565b600082821c905092915050565b6000620003e560001984600802620003c5565b1980831691505092915050565b6000620004008383620003d2565b9150826002028217905092915050565b6200041b8262000196565b67ffffffffffffffff811115620004375762000436620001a1565b5b620004438254620001ff565b6200045082828562000375565b600060209050601f83116001811462000488576000841562000473578287015190505b6200047f8582620003f2565b865550620004ef565b601f198416620004988662000234565b60005b82811015620004c2578489015182556001820191506020850194506020810190506200049b565b86831015620004e25784890151620004de601f891682620003d2565b8355505b6001600288020188555050505b505050505050565b6141a180620005076000396000f3fe608060405234801561001057600080fd5b50600436106101585760003560e01c806370a08231116100c3578063b602066e1161007c578063b602066e146103d9578063b88d4fde1461040d578063c87b56dd14610429578063e563f77814610459578063e985e9c514610475578063f2fde38b146104a557610158565b806370a0823114610317578063715018a6146103475780638da5cb5b1461035157806395d89b411461036f5780639b85b1f11461038d578063a22cb465146103bd57610158565b806323b872dd1161011557806323b872dd146102335780632d6d852f1461024f5780632f745c591461026b57806342842e0e1461029b5780634f6ccce7146102b75780636352211e146102e757610158565b806301ffc9a71461015d57806306fdde031461018d578063081812fc146101ab57806308386eba146101db578063095ea7b3146101f957806318160ddd14610215575b600080fd5b610177600480360381019061017291906127e7565b6104c1565b604051610184919061282f565b60405180910390f35b61019561053b565b6040516101a291906128da565b60405180910390f35b6101c560048036038101906101c09190612932565b6105cd565b6040516101d291906129a0565b60405180910390f35b6101e3610613565b6040516101f091906129ca565b60405180910390f35b610213600480360381019061020e9190612a11565b610619565b005b61021d610730565b60405161022a91906129ca565b60405180910390f35b61024d60048036038101906102489190612a51565b61073d565b005b61026960048036038101906102649190612ac8565b61079d565b005b61028560048036038101906102809190612a11565b61084a565b60405161029291906129ca565b60405180910390f35b6102b560048036038101906102b09190612a51565b6108ef565b005b6102d160048036038101906102cc9190612932565b61090f565b6040516102de91906129ca565b60405180910390f35b61030160048036038101906102fc9190612932565b610980565b60405161030e91906129a0565b60405180910390f35b610331600480360381019061032c9190612b24565b610a06565b60405161033e91906129ca565b60405180910390f35b61034f610abd565b005b610359610ad1565b60405161036691906129a0565b60405180910390f35b610377610afa565b60405161038491906128da565b60405180910390f35b6103a760048036038101906103a29190612932565b610b8c565b6040516103b49190612c35565b60405180910390f35b6103d760048036038101906103d29190612c83565b610e57565b005b6103f360048036038101906103ee9190612932565b610e6d565b604051610404959493929190612cc3565b60405180910390f35b61042760048036038101906104229190612e67565b6110e3565b005b610443600480360381019061043e9190612932565b611145565b60405161045091906128da565b60405180910390f35b610473600480360381019061046e9190612eea565b6111ad565b005b61048f600480360381019061048a9190612f33565b611242565b60405161049c919061282f565b60405180910390f35b6104bf60048036038101906104ba9190612b24565b6112d6565b005b60007f780e9d63000000000000000000000000000000000000000000000000000000007bffffffffffffffffffffffffffffffffffffffffffffffffffffffff1916827bffffffffffffffffffffffffffffffffffffffffffffffffffffffff19161480610534575061053382611359565b5b9050919050565b60606001805461054a90612fa2565b80601f016020809104026020016040519081016040528092919081815260200182805461057690612fa2565b80156105c35780601f10610598576101008083540402835291602001916105c3565b820191906000526020600020905b8154815290600101906020018083116105a657829003601f168201915b5050505050905090565b60006105d88261143b565b6005600083815260200190815260200160002060009054906101000a900473ffffffffffffffffffffffffffffffffffffffff169050919050565b600b5481565b600061062482610980565b90508073ffffffffffffffffffffffffffffffffffffffff168373ffffffffffffffffffffffffffffffffffffffff1603610694576040517f08c379a000000000000000000000000000000000000000000000000000000000815260040161068b90613045565b60405180910390fd5b8073ffffffffffffffffffffffffffffffffffffffff166106b3611486565b73ffffffffffffffffffffffffffffffffffffffff1614806106e257506106e1816106dc611486565b611242565b5b610721576040517f08c379a0000000000000000000000000000000000000000000000000000000008152600401610718906130d7565b60405180910390fd5b61072b838361148e565b505050565b6000600980549050905090565b61074e610748611486565b82611547565b61078d576040517f08c379a000000000000000000000000000000000000000000000000000000000815260040161078490613169565b60405180910390fd5b6107988383836115dc565b505050565b6107a56118d5565b600b548211156107ea576040517f08c379a00000000000000000000000000000000000000000000000000000000081526004016107e1906131d5565b60405180910390fd5b80600c6000848152602001908152602001600020818161080a9190613673565b9050507f2af2668216c13797f987f500352b5dcccb7f93d074b60a9ea347afb160cfed9e828260405161083e9291906137f2565b60405180910390a15050565b600061085583610a06565b8210610896576040517f08c379a000000000000000000000000000000000000000000000000000000000815260040161088d90613894565b60405180910390fd5b600760008473ffffffffffffffffffffffffffffffffffffffff1673ffffffffffffffffffffffffffffffffffffffff168152602001908152602001600020600083815260200190815260200160002054905092915050565b61090a838383604051806020016040528060008152506110e3565b505050565b6000610919610730565b821061095a576040517f08c379a000000000000000000000000000000000000000000000000000000000815260040161095190613926565b60405180910390fd5b6009828154811061096e5761096d613946565b5b90600052602060002001549050919050565b60008061098c83611953565b9050600073ffffffffffffffffffffffffffffffffffffffff168173ffffffffffffffffffffffffffffffffffffffff16036109fd576040517f08c379a00000000000000000000000000000000000000000000000000000000081526004016109f4906139c1565b60405180910390fd5b80915050919050565b60008073ffffffffffffffffffffffffffffffffffffffff168273ffffffffffffffffffffffffffffffffffffffff1603610a76576040517f08c379a0000000000000000000000000000000000000000000000000000000008152600401610a6d90613a53565b60405180910390fd5b600460008373ffffffffffffffffffffffffffffffffffffffff1673ffffffffffffffffffffffffffffffffffffffff168152602001908152602001600020549050919050565b610ac56118d5565b610acf6000611990565b565b60008060009054906101000a900473ffffffffffffffffffffffffffffffffffffffff16905090565b606060028054610b0990612fa2565b80601f0160208091040260200160405190810160405280929190818152602001828054610b3590612fa2565b8015610b825780601f10610b5757610100808354040283529160200191610b82565b820191906000526020600020905b815481529060010190602001808311610b6557829003601f168201915b5050505050905090565b610b94612736565b600c60008381526020019081526020016000206040518060a00160405290816000820160009054906101000a900473ffffffffffffffffffffffffffffffffffffffff1673ffffffffffffffffffffffffffffffffffffffff1673ffffffffffffffffffffffffffffffffffffffff168152602001600182018054610c1890612fa2565b80601f0160208091040260200160405190810160405280929190818152602001828054610c4490612fa2565b8015610c915780601f10610c6657610100808354040283529160200191610c91565b820191906000526020600020905b815481529060010190602001808311610c7457829003601f168201915b50505050508152602001600282018054610caa90612fa2565b80601f0160208091040260200160405190810160405280929190818152602001828054610cd690612fa2565b8015610d235780601f10610cf857610100808354040283529160200191610d23565b820191906000526020600020905b815481529060010190602001808311610d0657829003601f168201915b50505050508152602001600382018054610d3c90612fa2565b80601f0160208091040260200160405190810160405280929190818152602001828054610d6890612fa2565b8015610db55780601f10610d8a57610100808354040283529160200191610db5565b820191906000526020600020905b815481529060010190602001808311610d9857829003601f168201915b50505050508152602001600482018054610dce90612fa2565b80601f0160208091040260200160405190810160405280929190818152602001828054610dfa90612fa2565b8015610e475780601f10610e1c57610100808354040283529160200191610e47565b820191906000526020600020905b815481529060010190602001808311610e2a57829003601f168201915b5050505050815250509050919050565b610e69610e62611486565b8383611a54565b5050565b600c6020528060005260406000206000915090508060000160009054906101000a900473ffffffffffffffffffffffffffffffffffffffff1690806001018054610eb690612fa2565b80601f0160208091040260200160405190810160405280929190818152602001828054610ee290612fa2565b8015610f2f5780601f10610f0457610100808354040283529160200191610f2f565b820191906000526020600020905b815481529060010190602001808311610f1257829003601f168201915b505050505090806002018054610f4490612fa2565b80601f0160208091040260200160405190810160405280929190818152602001828054610f7090612fa2565b8015610fbd5780601f10610f9257610100808354040283529160200191610fbd565b820191906000526020600020905b815481529060010190602001808311610fa057829003601f168201915b505050505090806003018054610fd290612fa2565b80601f0160208091040260200160405190810160405280929190818152602001828054610ffe90612fa2565b801561104b5780601f106110205761010080835404028352916020019161104b565b820191906000526020600020905b81548152906001019060200180831161102e57829003601f168201915b50505050509080600401805461106090612fa2565b80601f016020809104026020016040519081016040528092919081815260200182805461108c90612fa2565b80156110d95780601f106110ae576101008083540402835291602001916110d9565b820191906000526020600020905b8154815290600101906020018083116110bc57829003601f168201915b5050505050905085565b6110f46110ee611486565b83611547565b611133576040517f08c379a000000000000000000000000000000000000000000000000000000000815260040161112a90613169565b60405180910390fd5b61113f84848484611bc0565b50505050565b60606111508261143b565b600061115a611c1c565b9050600081511161117a57604051806020016040528060008152506111a5565b8061118484611c33565b604051602001611195929190613aaf565b6040516020818303038152906040525b915050919050565b600b60008154809291906111c090613b02565b919050555080600c6000600b54815260200190815260200160002081816111e79190613673565b9050506112088160000160208101906112009190612b24565b600b54611d01565b7f68d89ba37b6b8d0b7cb139771c573485dd925fbb3007cfb62cb832bc2a24850a816040516112379190613b4a565b60405180910390a150565b6000600660008473ffffffffffffffffffffffffffffffffffffffff1673ffffffffffffffffffffffffffffffffffffffff16815260200190815260200160002060008373ffffffffffffffffffffffffffffffffffffffff1673ffffffffffffffffffffffffffffffffffffffff16815260200190815260200160002060009054906101000a900460ff16905092915050565b6112de6118d5565b600073ffffffffffffffffffffffffffffffffffffffff168173ffffffffffffffffffffffffffffffffffffffff160361134d576040517f08c379a000000000000000000000000000000000000000000000000000000000815260040161134490613bde565b60405180910390fd5b61135681611990565b50565b60007f80ac58cd000000000000000000000000000000000000000000000000000000007bffffffffffffffffffffffffffffffffffffffffffffffffffffffff1916827bffffffffffffffffffffffffffffffffffffffffffffffffffffffff1916148061142457507f5b5e139f000000000000000000000000000000000000000000000000000000007bffffffffffffffffffffffffffffffffffffffffffffffffffffffff1916827bffffffffffffffffffffffffffffffffffffffffffffffffffffffff1916145b80611434575061143382611f1e565b5b9050919050565b61144481611f88565b611483576040517f08c379a000000000000000000000000000000000000000000000000000000000815260040161147a906139c1565b60405180910390fd5b50565b600033905090565b816005600083815260200190815260200160002060006101000a81548173ffffffffffffffffffffffffffffffffffffffff021916908373ffffffffffffffffffffffffffffffffffffffff160217905550808273ffffffffffffffffffffffffffffffffffffffff1661150183610980565b73ffffffffffffffffffffffffffffffffffffffff167f8c5be1e5ebec7d5bd14f71427d1e84f3dd0314c0f7b2291e5b200ac8c7c3b92560405160405180910390a45050565b60008061155383610980565b90508073ffffffffffffffffffffffffffffffffffffffff168473ffffffffffffffffffffffffffffffffffffffff16148061159557506115948185611242565b5b806115d357508373ffffffffffffffffffffffffffffffffffffffff166115bb846105cd565b73ffffffffffffffffffffffffffffffffffffffff16145b91505092915050565b8273ffffffffffffffffffffffffffffffffffffffff166115fc82610980565b73ffffffffffffffffffffffffffffffffffffffff1614611652576040517f08c379a000000000000000000000000000000000000000000000000000000000815260040161164990613c70565b60405180910390fd5b600073ffffffffffffffffffffffffffffffffffffffff168273ffffffffffffffffffffffffffffffffffffffff16036116c1576040517f08c379a00000000000000000000000000000000000000000000000000000000081526004016116b890613d02565b60405180910390fd5b6116ce8383836001611fc9565b8273ffffffffffffffffffffffffffffffffffffffff166116ee82610980565b73ffffffffffffffffffffffffffffffffffffffff1614611744576040517f08c379a000000000000000000000000000000000000000000000000000000000815260040161173b90613c70565b60405180910390fd5b6005600082815260200190815260200160002060006101000a81549073ffffffffffffffffffffffffffffffffffffffff02191690556001600460008573ffffffffffffffffffffffffffffffffffffffff1673ffffffffffffffffffffffffffffffffffffffff168152602001908152602001600020600082825403925050819055506001600460008473ffffffffffffffffffffffffffffffffffffffff1673ffffffffffffffffffffffffffffffffffffffff16815260200190815260200160002060008282540192505081905550816003600083815260200190815260200160002060006101000a81548173ffffffffffffffffffffffffffffffffffffffff021916908373ffffffffffffffffffffffffffffffffffffffff160217905550808273ffffffffffffffffffffffffffffffffffffffff168473ffffffffffffffffffffffffffffffffffffffff167fddf252ad1be2c89b69c2b068fc378daa952ba7f163c4a11628f55a4df523b3ef60405160405180910390a46118d08383836001612127565b505050565b6118dd611486565b73ffffffffffffffffffffffffffffffffffffffff166118fb610ad1565b73ffffffffffffffffffffffffffffffffffffffff1614611951576040517f08c379a000000000000000000000000000000000000000000000000000000000815260040161194890613d6e565b60405180910390fd5b565b60006003600083815260200190815260200160002060009054906101000a900473ffffffffffffffffffffffffffffffffffffffff169050919050565b60008060009054906101000a900473ffffffffffffffffffffffffffffffffffffffff169050816000806101000a81548173ffffffffffffffffffffffffffffffffffffffff021916908373ffffffffffffffffffffffffffffffffffffffff1602179055508173ffffffffffffffffffffffffffffffffffffffff168173ffffffffffffffffffffffffffffffffffffffff167f8be0079c531659141344cd1fd0a4f28419497f9722a3daafe3b4186f6b6457e060405160405180910390a35050565b8173ffffffffffffffffffffffffffffffffffffffff168373ffffffffffffffffffffffffffffffffffffffff1603611ac2576040517f08c379a0000000000000000000000000000000000000000000000000000000008152600401611ab990613dda565b60405180910390fd5b80600660008573ffffffffffffffffffffffffffffffffffffffff1673ffffffffffffffffffffffffffffffffffffffff16815260200190815260200160002060008473ffffffffffffffffffffffffffffffffffffffff1673ffffffffffffffffffffffffffffffffffffffff16815260200190815260200160002060006101000a81548160ff0219169083151502179055508173ffffffffffffffffffffffffffffffffffffffff168373ffffffffffffffffffffffffffffffffffffffff167f17307eab39ab6107e8899845ad3d59bd9653f200f220920489ca2b5937696c3183604051611bb3919061282f565b60405180910390a3505050565b611bcb8484846115dc565b611bd78484848461212d565b611c16576040517f08c379a0000000000000000000000000000000000000000000000000000000008152600401611c0d90613e6c565b60405180910390fd5b50505050565b606060405180602001604052806000815250905090565b606060006001611c42846122b4565b01905060008167ffffffffffffffff811115611c6157611c60612d3c565b5b6040519080825280601f01601f191660200182016040528015611c935781602001600182028036833780820191505090505b509050600082602001820190505b600115611cf6578080600190039150507f3031323334353637383961626364656600000000000000000000000000000000600a86061a8153600a8581611cea57611ce9613e8c565b5b04945060008503611ca1575b819350505050919050565b600073ffffffffffffffffffffffffffffffffffffffff168273ffffffffffffffffffffffffffffffffffffffff1603611d70576040517f08c379a0000000000000000000000000000000000000000000000000000000008152600401611d6790613f07565b60405180910390fd5b611d7981611f88565b15611db9576040517f08c379a0000000000000000000000000000000000000000000000000000000008152600401611db090613f73565b60405180910390fd5b611dc7600083836001611fc9565b611dd081611f88565b15611e10576040517f08c379a0000000000000000000000000000000000000000000000000000000008152600401611e0790613f73565b60405180910390fd5b6001600460008473ffffffffffffffffffffffffffffffffffffffff1673ffffffffffffffffffffffffffffffffffffffff16815260200190815260200160002060008282540192505081905550816003600083815260200190815260200160002060006101000a81548173ffffffffffffffffffffffffffffffffffffffff021916908373ffffffffffffffffffffffffffffffffffffffff160217905550808273ffffffffffffffffffffffffffffffffffffffff16600073ffffffffffffffffffffffffffffffffffffffff167fddf252ad1be2c89b69c2b068fc378daa952ba7f163c4a11628f55a4df523b3ef60405160405180910390a4611f1a600083836001612127565b5050565b60007f01ffc9a7000000000000000000000000000000000000000000000000000000007bffffffffffffffffffffffffffffffffffffffffffffffffffffffff1916827bffffffffffffffffffffffffffffffffffffffffffffffffffffffff1916149050919050565b60008073ffffffffffffffffffffffffffffffffffffffff16611faa83611953565b73ffffffffffffffffffffffffffffffffffffffff1614159050919050565b611fd584848484612407565b6001811115612019576040517f08c379a000000000000000000000000000000000000000000000000000000000815260040161201090614005565b60405180910390fd5b6000829050600073ffffffffffffffffffffffffffffffffffffffff168573ffffffffffffffffffffffffffffffffffffffff16036120605761205b8161240d565b61209f565b8373ffffffffffffffffffffffffffffffffffffffff168573ffffffffffffffffffffffffffffffffffffffff161461209e5761209d8582612456565b5b5b600073ffffffffffffffffffffffffffffffffffffffff168473ffffffffffffffffffffffffffffffffffffffff16036120e1576120dc816125c3565b612120565b8473ffffffffffffffffffffffffffffffffffffffff168473ffffffffffffffffffffffffffffffffffffffff161461211f5761211e8482612694565b5b5b5050505050565b50505050565b600061214e8473ffffffffffffffffffffffffffffffffffffffff16612713565b156122a7578373ffffffffffffffffffffffffffffffffffffffff1663150b7a02612177611486565b8786866040518563ffffffff1660e01b8152600401612199949392919061407a565b6020604051808303816000875af19250505080156121d557506040513d601f19601f820116820180604052508101906121d291906140db565b60015b612257573d8060008114612205576040519150601f19603f3d011682016040523d82523d6000602084013e61220a565b606091505b50600081510361224f576040517f08c379a000000000000000000000000000000000000000000000000000000000815260040161224690613e6c565b60405180910390fd5b805181602001fd5b63150b7a0260e01b7bffffffffffffffffffffffffffffffffffffffffffffffffffffffff1916817bffffffffffffffffffffffffffffffffffffffffffffffffffffffff1916149150506122ac565b600190505b949350505050565b600080600090507a184f03e93ff9f4daa797ed6e38ed64bf6a1f0100000000000000008310612312577a184f03e93ff9f4daa797ed6e38ed64bf6a1f010000000000000000838161230857612307613e8c565b5b0492506040810190505b6d04ee2d6d415b85acef8100000000831061234f576d04ee2d6d415b85acef8100000000838161234557612344613e8c565b5b0492506020810190505b662386f26fc10000831061237e57662386f26fc10000838161237457612373613e8c565b5b0492506010810190505b6305f5e10083106123a7576305f5e100838161239d5761239c613e8c565b5b0492506008810190505b61271083106123cc5761271083816123c2576123c1613e8c565b5b0492506004810190505b606483106123ef57606483816123e5576123e4613e8c565b5b0492506002810190505b600a83106123fe576001810190505b80915050919050565b50505050565b600980549050600a600083815260200190815260200160002081905550600981908060018154018082558091505060019003906000526020600020016000909190919091505550565b6000600161246384610a06565b61246d9190614108565b9050600060086000848152602001908152602001600020549050818114612552576000600760008673ffffffffffffffffffffffffffffffffffffffff1673ffffffffffffffffffffffffffffffffffffffff168152602001908152602001600020600084815260200190815260200160002054905080600760008773ffffffffffffffffffffffffffffffffffffffff1673ffffffffffffffffffffffffffffffffffffffff168152602001908152602001600020600084815260200190815260200160002081905550816008600083815260200190815260200160002081905550505b6008600084815260200190815260200160002060009055600760008573ffffffffffffffffffffffffffffffffffffffff1673ffffffffffffffffffffffffffffffffffffffff16815260200190815260200160002060008381526020019081526020016000206000905550505050565b600060016009805490506125d79190614108565b90506000600a600084815260200190815260200160002054905060006009838154811061260757612606613946565b5b90600052602060002001549050806009838154811061262957612628613946565b5b906000526020600020018190555081600a600083815260200190815260200160002081905550600a60008581526020019081526020016000206000905560098054806126785761267761413c565b5b6001900381819060005260206000200160009055905550505050565b600061269f83610a06565b905081600760008573ffffffffffffffffffffffffffffffffffffffff1673ffffffffffffffffffffffffffffffffffffffff168152602001908152602001600020600083815260200190815260200160002081905550806008600084815260200190815260200160002081905550505050565b6000808273ffffffffffffffffffffffffffffffffffffffff163b119050919050565b6040518060a00160405280600073ffffffffffffffffffffffffffffffffffffffff168152602001606081526020016060815260200160608152602001606081525090565b6000604051905090565b600080fd5b600080fd5b60007fffffffff0000000000000000000000000000000000000000000000000000000082169050919050565b6127c48161278f565b81146127cf57600080fd5b50565b6000813590506127e1816127bb565b92915050565b6000602082840312156127fd576127fc612785565b5b600061280b848285016127d2565b91505092915050565b60008115159050919050565b61282981612814565b82525050565b60006020820190506128446000830184612820565b92915050565b600081519050919050565b600082825260208201905092915050565b60005b83811015612884578082015181840152602081019050612869565b60008484015250505050565b6000601f19601f8301169050919050565b60006128ac8261284a565b6128b68185612855565b93506128c6818560208601612866565b6128cf81612890565b840191505092915050565b600060208201905081810360008301526128f481846128a1565b905092915050565b6000819050919050565b61290f816128fc565b811461291a57600080fd5b50565b60008135905061292c81612906565b92915050565b60006020828403121561294857612947612785565b5b60006129568482850161291d565b91505092915050565b600073ffffffffffffffffffffffffffffffffffffffff82169050919050565b600061298a8261295f565b9050919050565b61299a8161297f565b82525050565b60006020820190506129b56000830184612991565b92915050565b6129c4816128fc565b82525050565b60006020820190506129df60008301846129bb565b92915050565b6129ee8161297f565b81146129f957600080fd5b50565b600081359050612a0b816129e5565b92915050565b60008060408385031215612a2857612a27612785565b5b6000612a36858286016129fc565b9250506020612a478582860161291d565b9150509250929050565b600080600060608486031215612a6a57612a69612785565b5b6000612a78868287016129fc565b9350506020612a89868287016129fc565b9250506040612a9a8682870161291d565b9150509250925092565b600080fd5b600060a08284031215612abf57612abe612aa4565b5b81905092915050565b60008060408385031215612adf57612ade612785565b5b6000612aed8582860161291d565b925050602083013567ffffffffffffffff811115612b0e57612b0d61278a565b5b612b1a85828601612aa9565b9150509250929050565b600060208284031215612b3a57612b39612785565b5b6000612b48848285016129fc565b91505092915050565b612b5a8161297f565b82525050565b600082825260208201905092915050565b6000612b7c8261284a565b612b868185612b60565b9350612b96818560208601612866565b612b9f81612890565b840191505092915050565b600060a083016000830151612bc26000860182612b51565b5060208301518482036020860152612bda8282612b71565b91505060408301518482036040860152612bf48282612b71565b91505060608301518482036060860152612c0e8282612b71565b91505060808301518482036080860152612c288282612b71565b9150508091505092915050565b60006020820190508181036000830152612c4f8184612baa565b905092915050565b612c6081612814565b8114612c6b57600080fd5b50565b600081359050612c7d81612c57565b92915050565b60008060408385031215612c9a57612c99612785565b5b6000612ca8858286016129fc565b9250506020612cb985828601612c6e565b9150509250929050565b600060a082019050612cd86000830188612991565b8181036020830152612cea81876128a1565b90508181036040830152612cfe81866128a1565b90508181036060830152612d1281856128a1565b90508181036080830152612d2681846128a1565b90509695505050505050565b600080fd5b600080fd5b7f4e487b7100000000000000000000000000000000000000000000000000000000600052604160045260246000fd5b612d7482612890565b810181811067ffffffffffffffff82111715612d9357612d92612d3c565b5b80604052505050565b6000612da661277b565b9050612db28282612d6b565b919050565b600067ffffffffffffffff821115612dd257612dd1612d3c565b5b612ddb82612890565b9050602081019050919050565b82818337600083830152505050565b6000612e0a612e0584612db7565b612d9c565b905082815260208101848484011115612e2657612e25612d37565b5b612e31848285612de8565b509392505050565b600082601f830112612e4e57612e4d612d32565b5b8135612e5e848260208601612df7565b91505092915050565b60008060008060808587031215612e8157612e80612785565b5b6000612e8f878288016129fc565b9450506020612ea0878288016129fc565b9350506040612eb18782880161291d565b925050606085013567ffffffffffffffff811115612ed257612ed161278a565b5b612ede87828801612e39565b91505092959194509250565b600060208284031215612f0057612eff612785565b5b600082013567ffffffffffffffff811115612f1e57612f1d61278a565b5b612f2a84828501612aa9565b91505092915050565b60008060408385031215612f4a57612f49612785565b5b6000612f58858286016129fc565b9250506020612f69858286016129fc565b9150509250929050565b7f4e487b7100000000000000000000000000000000000000000000000000000000600052602260045260246000fd5b60006002820490506001821680612fba57607f821691505b602082108103612fcd57612fcc612f73565b5b50919050565b7f4552433732313a20617070726f76616c20746f2063757272656e74206f776e6560008201527f7200000000000000000000000000000000000000000000000000000000000000602082015250565b600061302f602183612855565b915061303a82612fd3565b604082019050919050565b6000602082019050818103600083015261305e81613022565b9050919050565b7f4552433732313a20617070726f76652063616c6c6572206973206e6f7420746f60008201527f6b656e206f776e6572206f7220617070726f76656420666f7220616c6c000000602082015250565b60006130c1603d83612855565b91506130cc82613065565b604082019050919050565b600060208201905081810360008301526130f0816130b4565b9050919050565b7f4552433732313a2063616c6c6572206973206e6f7420746f6b656e206f776e6560008201527f72206f7220617070726f76656400000000000000000000000000000000000000602082015250565b6000613153602d83612855565b915061315e826130f7565b604082019050919050565b6000602082019050818103600083015261318281613146565b9050919050565b7f496e76616c69642070726f66696c652049440000000000000000000000000000600082015250565b60006131bf601283612855565b91506131ca82613189565b602082019050919050565b600060208201905081810360008301526131ee816131b2565b9050919050565b60008135613202816129e5565b80915050919050565b60008160001b9050919050565b600073ffffffffffffffffffffffffffffffffffffffff6132388461320b565b9350801983169250808416831791505092915050565b6000819050919050565b600061327361326e6132698461295f565b61324e565b61295f565b9050919050565b600061328582613258565b9050919050565b60006132978261327a565b9050919050565b6000819050919050565b6132b18261328c565b6132c46132bd8261329e565b8354613218565b8255505050565b600080fd5b600080fd5b600080fd5b600080833560016020038436030381126132f7576132f66132cb565b5b80840192508235915067ffffffffffffffff821115613319576133186132d0565b5b602083019250600182023603831315613335576133346132d5565b5b509250929050565b600082905092915050565b60008190508160005260206000209050919050565b60006020601f8301049050919050565b600082821b905092915050565b6000600883026133aa7fffffffffffffffffffffffffffffffffffffffffffffffffffffffffffffffff8261336d565b6133b4868361336d565b95508019841693508086168417925050509392505050565b60006133e76133e26133dd846128fc565b61324e565b6128fc565b9050919050565b6000819050919050565b613401836133cc565b61341561340d826133ee565b84845461337a565b825550505050565b600090565b61342a61341d565b6134358184846133f8565b505050565b5b818110156134595761344e600082613422565b60018101905061343b565b5050565b601f82111561349e5761346f81613348565b6134788461335d565b81016020851015613487578190505b61349b6134938561335d565b83018261343a565b50505b505050565b600082821c905092915050565b60006134c1600019846008026134a3565b1980831691505092915050565b60006134da83836134b0565b9150826002028217905092915050565b6134f4838361333d565b67ffffffffffffffff81111561350d5761350c612d3c565b5b6135178254612fa2565b61352282828561345d565b6000601f831160018114613551576000841561353f578287013590505b61354985826134ce565b8655506135b1565b601f19841661355f86613348565b60005b8281101561358757848901358255600182019150602085019450602081019050613562565b868310156135a457848901356135a0601f8916826134b0565b8355505b6001600288020188555050505b50505050505050565b6135c58383836134ea565b505050565b6000810160008301806135dc816131f5565b90506135e881846132a8565b50505060018101602083016135fd81856132da565b6136088183866135ba565b50505050600281016040830161361e81856132da565b6136298183866135ba565b50505050600381016060830161363f81856132da565b61364a8183866135ba565b50505050600481016080830161366081856132da565b61366b8183866135ba565b505050505050565b61367d82826135ca565b5050565b600061369060208401846129fc565b905092915050565b600080fd5b600080fd5b600080fd5b600080833560016020038436030381126136c4576136c36136a2565b5b83810192508235915060208301925067ffffffffffffffff8211156136ec576136eb613698565b5b6001820236038313156137025761370161369d565b5b509250929050565b60006137168385612b60565b9350613723838584612de8565b61372c83612890565b840190509392505050565b600060a0830161374a6000840184613681565b6137576000860182612b51565b5061376560208401846136a7565b858303602087015261377883828461370a565b9250505061378960408401846136a7565b858303604087015261379c83828461370a565b925050506137ad60608401846136a7565b85830360608701526137c083828461370a565b925050506137d160808401846136a7565b85830360808701526137e483828461370a565b925050508091505092915050565b600060408201905061380760008301856129bb565b81810360208301526138198184613737565b90509392505050565b7f455243373231456e756d657261626c653a206f776e657220696e646578206f7560008201527f74206f6620626f756e6473000000000000000000000000000000000000000000602082015250565b600061387e602b83612855565b915061388982613822565b604082019050919050565b600060208201905081810360008301526138ad81613871565b9050919050565b7f455243373231456e756d657261626c653a20676c6f62616c20696e646578206f60008201527f7574206f6620626f756e64730000000000000000000000000000000000000000602082015250565b6000613910602c83612855565b915061391b826138b4565b604082019050919050565b6000602082019050818103600083015261393f81613903565b9050919050565b7f4e487b7100000000000000000000000000000000000000000000000000000000600052603260045260246000fd5b7f4552433732313a20696e76616c696420746f6b656e2049440000000000000000600082015250565b60006139ab601883612855565b91506139b682613975565b602082019050919050565b600060208201905081810360008301526139da8161399e565b9050919050565b7f4552433732313a2061646472657373207a65726f206973206e6f74206120766160008201527f6c6964206f776e65720000000000000000000000000000000000000000000000602082015250565b6000613a3d602983612855565b9150613a48826139e1565b604082019050919050565b60006020820190508181036000830152613a6c81613a30565b9050919050565b600081905092915050565b6000613a898261284a565b613a938185613a73565b9350613aa3818560208601612866565b80840191505092915050565b6000613abb8285613a7e565b9150613ac78284613a7e565b91508190509392505050565b7f4e487b7100000000000000000000000000000000000000000000000000000000600052601160045260246000fd5b6000613b0d826128fc565b91507fffffffffffffffffffffffffffffffffffffffffffffffffffffffffffffffff8203613b3f57613b3e613ad3565b5b600182019050919050565b60006020820190508181036000830152613b648184613737565b905092915050565b7f4f776e61626c653a206e6577206f776e657220697320746865207a65726f206160008201527f6464726573730000000000000000000000000000000000000000000000000000602082015250565b6000613bc8602683612855565b9150613bd382613b6c565b604082019050919050565b60006020820190508181036000830152613bf781613bbb565b9050919050565b7f4552433732313a207472616e736665722066726f6d20696e636f72726563742060008201527f6f776e6572000000000000000000000000000000000000000000000000000000602082015250565b6000613c5a602583612855565b9150613c6582613bfe565b604082019050919050565b60006020820190508181036000830152613c8981613c4d565b9050919050565b7f4552433732313a207472616e7366657220746f20746865207a65726f2061646460008201527f7265737300000000000000000000000000000000000000000000000000000000602082015250565b6000613cec602483612855565b9150613cf782613c90565b604082019050919050565b60006020820190508181036000830152613d1b81613cdf565b9050919050565b7f4f776e61626c653a2063616c6c6572206973206e6f7420746865206f776e6572600082015250565b6000613d58602083612855565b9150613d6382613d22565b602082019050919050565b60006020820190508181036000830152613d8781613d4b565b9050919050565b7f4552433732313a20617070726f766520746f2063616c6c657200000000000000600082015250565b6000613dc4601983612855565b9150613dcf82613d8e565b602082019050919050565b60006020820190508181036000830152613df381613db7565b9050919050565b7f4552433732313a207472616e7366657220746f206e6f6e20455243373231526560008201527f63656976657220696d706c656d656e7465720000000000000000000000000000602082015250565b6000613e56603283612855565b9150613e6182613dfa565b604082019050919050565b60006020820190508181036000830152613e8581613e49565b9050919050565b7f4e487b7100000000000000000000000000000000000000000000000000000000600052601260045260246000fd5b7f4552433732313a206d696e7420746f20746865207a65726f2061646472657373600082015250565b6000613ef1602083612855565b9150613efc82613ebb565b602082019050919050565b60006020820190508181036000830152613f2081613ee4565b9050919050565b7f4552433732313a20746f6b656e20616c7265616479206d696e74656400000000600082015250565b6000613f5d601c83612855565b9150613f6882613f27565b602082019050919050565b60006020820190508181036000830152613f8c81613f50565b9050919050565b7f455243373231456e756d657261626c653a20636f6e736563757469766520747260008201527f616e7366657273206e6f7420737570706f727465640000000000000000000000602082015250565b6000613fef603583612855565b9150613ffa82613f93565b604082019050919050565b6000602082019050818103600083015261401e81613fe2565b9050919050565b600081519050919050565b600082825260208201905092915050565b600061404c82614025565b6140568185614030565b9350614066818560208601612866565b61406f81612890565b840191505092915050565b600060808201905061408f6000830187612991565b61409c6020830186612991565b6140a960408301856129bb565b81810360608301526140bb8184614041565b905095945050505050565b6000815190506140d5816127bb565b92915050565b6000602082840312156140f1576140f0612785565b5b60006140ff848285016140c6565b91505092915050565b6000614113826128fc565b915061411e836128fc565b925082820390508181111561413657614135613ad3565b5b92915050565b7f4e487b7100000000000000000000000000000000000000000000000000000000600052603160045260246000fdfea2646970667358221220f15e6e0efebb57e34e89b6514e9c785a00126192ce582340f661ee5c544f614064736f6c63430008130033",
  "linkReferences": {},
  "deployedLinkReferences": {}
}