{
  "_format": "hh-sol-artifact-1",
  "contractName": "SocialWeb3",
  "sourceName": "contracts/SocialWeb3.sol",
  "abi": [
    {
      "inputs": [],
      "stateMutability": "nonpayable",
      "type": "constructor"
    },
    {
      "anonymous": false,
      "inputs": [
        {
          "indexed": true,
          "internalType": "address",
          "name": "owner",
          "type": "address"
        },
        {
          "indexed": true,
          "internalType": "address",
          "name": "approved",
          "type": "address"
        },
        {
          "indexed": true,
          "internalType": "uint256",
          "name": "tokenId",
          "type": "uint256"
        }
      ],
      "name": "Approval",
      "type": "event"
    },
    {
      "anonymous": false,
      "inputs": [
        {
          "indexed": true,
          "internalType": "address",
          "name": "owner",
          "type": "address"
        },
        {
          "indexed": true,
          "internalType": "address",
          "name": "operator",
          "type": "address"
        },
        {
          "indexed": false,
          "internalType": "bool",
          "name": "approved",
          "type": "bool"
        }
      ],
      "name": "ApprovalForAll",
      "type": "event"
    },
    {
      "anonymous": false,
      "inputs": [
        {
          "components": [
            {
              "internalType": "uint256",
              "name": "postId",
              "type": "uint256"
            },
            {
              "internalType": "string",
              "name": "handle",
              "type": "string"
            },
            {
              "internalType": "string",
              "name": "content",
              "type": "string"
            },
            {
              "internalType": "uint256",
              "name": "timestamp",
              "type": "uint256"
            }
          ],
          "indexed": false,
          "internalType": "struct SocialWeb3.Post",
          "name": "post",
          "type": "tuple"
        }
      ],
      "name": "CreatePost",
      "type": "event"
    },
    {
      "anonymous": false,
      "inputs": [
        {
          "components": [
            {
              "internalType": "address",
              "name": "owner",
              "type": "address"
            },
            {
              "internalType": "string",
              "name": "handle",
              "type": "string"
            },
            {
              "internalType": "string",
              "name": "name",
              "type": "string"
            },
            {
              "internalType": "string",
              "name": "imageURI",
              "type": "string"
            },
            {
              "internalType": "string",
              "name": "bio",
              "type": "string"
            }
          ],
          "indexed": false,
          "internalType": "struct SocialWeb3.ProfileNFTData",
          "name": "profileNFTData",
          "type": "tuple"
        }
      ],
      "name": "CreateProfileNFT",
      "type": "event"
    },
    {
      "anonymous": false,
      "inputs": [
        {
          "indexed": true,
          "internalType": "address",
          "name": "previousOwner",
          "type": "address"
        },
        {
          "indexed": true,
          "internalType": "address",
          "name": "newOwner",
          "type": "address"
        }
      ],
      "name": "OwnershipTransferred",
      "type": "event"
    },
    {
      "anonymous": false,
      "inputs": [
        {
          "indexed": true,
          "internalType": "address",
          "name": "from",
          "type": "address"
        },
        {
          "indexed": true,
          "internalType": "address",
          "name": "to",
          "type": "address"
        },
        {
          "indexed": true,
          "internalType": "uint256",
          "name": "tokenId",
          "type": "uint256"
        }
      ],
      "name": "Transfer",
      "type": "event"
    },
    {
      "anonymous": false,
      "inputs": [
        {
          "indexed": false,
          "internalType": "uint256",
          "name": "profileId",
          "type": "uint256"
        },
        {
          "components": [
            {
              "internalType": "address",
              "name": "owner",
              "type": "address"
            },
            {
              "internalType": "string",
              "name": "handle",
              "type": "string"
            },
            {
              "internalType": "string",
              "name": "name",
              "type": "string"
            },
            {
              "internalType": "string",
              "name": "imageURI",
              "type": "string"
            },
            {
              "internalType": "string",
              "name": "bio",
              "type": "string"
            }
          ],
          "indexed": false,
          "internalType": "struct SocialWeb3.ProfileNFTData",
          "name": "profileData",
          "type": "tuple"
        }
      ],
      "name": "UpdateProfile",
      "type": "event"
    },
    {
      "inputs": [
        {
          "internalType": "address",
          "name": "to",
          "type": "address"
        },
        {
          "internalType": "uint256",
          "name": "tokenId",
          "type": "uint256"
        }
      ],
      "name": "approve",
      "outputs": [],
      "stateMutability": "nonpayable",
      "type": "function"
    },
    {
      "inputs": [
        {
          "internalType": "address",
          "name": "owner",
          "type": "address"
        }
      ],
      "name": "balanceOf",
      "outputs": [
        {
          "internalType": "uint256",
          "name": "",
          "type": "uint256"
        }
      ],
      "stateMutability": "view",
      "type": "function"
    },
    {
      "inputs": [
        {
          "internalType": "string",
          "name": "_handle",
          "type": "string"
        },
        {
          "internalType": "string",
          "name": "_content",
          "type": "string"
        }
      ],
      "name": "createPost",
      "outputs": [],
      "stateMutability": "nonpayable",
      "type": "function"
    },
    {
      "inputs": [
        {
          "components": [
            {
              "internalType": "address",
              "name": "owner",
              "type": "address"
            },
            {
              "internalType": "string",
              "name": "handle",
              "type": "string"
            },
            {
              "internalType": "string",
              "name": "name",
              "type": "string"
            },
            {
              "internalType": "string",
              "name": "imageURI",
              "type": "string"
            },
            {
              "internalType": "string",
              "name": "bio",
              "type": "string"
            }
          ],
          "internalType": "struct SocialWeb3.ProfileNFTData",
          "name": "_profileNFTData",
          "type": "tuple"
        }
      ],
      "name": "createProfileNFT",
      "outputs": [],
      "stateMutability": "nonpayable",
      "type": "function"
    },
    {
      "inputs": [
        {
          "internalType": "uint256",
          "name": "tokenId",
          "type": "uint256"
        }
      ],
      "name": "getApproved",
      "outputs": [
        {
          "internalType": "address",
          "name": "",
          "type": "address"
        }
      ],
      "stateMutability": "view",
      "type": "function"
    },
    {
      "inputs": [
        {
          "internalType": "uint256",
          "name": "_postId",
          "type": "uint256"
        }
      ],
      "name": "getPost",
      "outputs": [
        {
          "components": [
            {
              "internalType": "uint256",
              "name": "postId",
              "type": "uint256"
            },
            {
              "internalType": "string",
              "name": "handle",
              "type": "string"
            },
            {
              "internalType": "string",
              "name": "content",
              "type": "string"
            },
            {
              "internalType": "uint256",
              "name": "timestamp",
              "type": "uint256"
            }
          ],
          "internalType": "struct SocialWeb3.Post",
          "name": "",
          "type": "tuple"
        }
      ],
      "stateMutability": "view",
      "type": "function"
    },
    {
      "inputs": [
        {
          "internalType": "uint256",
          "name": "_number",
          "type": "uint256"
        }
      ],
      "name": "getPostWithNumber",
      "outputs": [
        {
          "components": [
            {
              "internalType": "uint256",
              "name": "postId",
              "type": "uint256"
            },
            {
              "internalType": "string",
              "name": "handle",
              "type": "string"
            },
            {
              "internalType": "string",
              "name": "content",
              "type": "string"
            },
            {
              "internalType": "uint256",
              "name": "timestamp",
              "type": "uint256"
            }
          ],
          "internalType": "struct SocialWeb3.Post[]",
          "name": "",
          "type": "tuple[]"
        }
      ],
      "stateMutability": "view",
      "type": "function"
    },
    {
      "inputs": [
        {
          "internalType": "uint256",
          "name": "_profileId",
          "type": "uint256"
        }
      ],
      "name": "getProfileNFTData",
      "outputs": [
        {
          "components": [
            {
              "internalType": "address",
              "name": "owner",
              "type": "address"
            },
            {
              "internalType": "string",
              "name": "handle",
              "type": "string"
            },
            {
              "internalType": "string",
              "name": "name",
              "type": "string"
            },
            {
              "internalType": "string",
              "name": "imageURI",
              "type": "string"
            },
            {
              "internalType": "string",
              "name": "bio",
              "type": "string"
            }
          ],
          "internalType": "struct SocialWeb3.ProfileNFTData",
          "name": "",
          "type": "tuple"
        }
      ],
      "stateMutability": "view",
      "type": "function"
    },
    {
      "inputs": [
        {
          "internalType": "string",
          "name": "_handle",
          "type": "string"
        }
      ],
      "name": "getProfilePosts",
      "outputs": [
        {
          "components": [
            {
              "internalType": "uint256",
              "name": "postId",
              "type": "uint256"
            },
            {
              "internalType": "string",
              "name": "handle",
              "type": "string"
            },
            {
              "internalType": "string",
              "name": "content",
              "type": "string"
            },
            {
              "internalType": "uint256",
              "name": "timestamp",
              "type": "uint256"
            }
          ],
          "internalType": "struct SocialWeb3.Post[]",
          "name": "",
          "type": "tuple[]"
        }
      ],
      "stateMutability": "view",
      "type": "function"
    },
    {
      "inputs": [
        {
          "internalType": "address",
          "name": "_user",
          "type": "address"
        }
      ],
      "name": "getUserProfiles",
      "outputs": [
        {
          "internalType": "uint256[]",
          "name": "",
          "type": "uint256[]"
        }
      ],
      "stateMutability": "view",
      "type": "function"
    },
    {
      "inputs": [
        {
          "internalType": "address",
          "name": "owner",
          "type": "address"
        },
        {
          "internalType": "address",
          "name": "operator",
          "type": "address"
        }
      ],
      "name": "isApprovedForAll",
      "outputs": [
        {
          "internalType": "bool",
          "name": "",
          "type": "bool"
        }
      ],
      "stateMutability": "view",
      "type": "function"
    },
    {
      "inputs": [],
      "name": "name",
      "outputs": [
        {
          "internalType": "string",
          "name": "",
          "type": "string"
        }
      ],
      "stateMutability": "view",
      "type": "function"
    },
    {
      "inputs": [],
      "name": "owner",
      "outputs": [
        {
          "internalType": "address",
          "name": "",
          "type": "address"
        }
      ],
      "stateMutability": "view",
      "type": "function"
    },
    {
      "inputs": [
        {
          "internalType": "uint256",
          "name": "tokenId",
          "type": "uint256"
        }
      ],
      "name": "ownerOf",
      "outputs": [
        {
          "internalType": "address",
          "name": "",
          "type": "address"
        }
      ],
      "stateMutability": "view",
      "type": "function"
    },
    {
      "inputs": [],
      "name": "postId",
      "outputs": [
        {
          "internalType": "uint256",
          "name": "",
          "type": "uint256"
        }
      ],
      "stateMutability": "view",
      "type": "function"
    },
    {
      "inputs": [
        {
          "internalType": "uint256",
          "name": "",
          "type": "uint256"
        }
      ],
      "name": "posts",
      "outputs": [
        {
          "internalType": "uint256",
          "name": "postId",
          "type": "uint256"
        },
        {
          "internalType": "string",
          "name": "handle",
          "type": "string"
        },
        {
          "internalType": "string",
          "name": "content",
          "type": "string"
        },
        {
          "internalType": "uint256",
          "name": "timestamp",
          "type": "uint256"
        }
      ],
      "stateMutability": "view",
      "type": "function"
    },
    {
      "inputs": [],
      "name": "profileId",
      "outputs": [
        {
          "internalType": "uint256",
          "name": "",
          "type": "uint256"
        }
      ],
      "stateMutability": "view",
      "type": "function"
    },
    {
      "inputs": [
        {
          "internalType": "uint256",
          "name": "",
          "type": "uint256"
        }
      ],
      "name": "profileNFTData",
      "outputs": [
        {
          "internalType": "address",
          "name": "owner",
          "type": "address"
        },
        {
          "internalType": "string",
          "name": "handle",
          "type": "string"
        },
        {
          "internalType": "string",
          "name": "name",
          "type": "string"
        },
        {
          "internalType": "string",
          "name": "imageURI",
          "type": "string"
        },
        {
          "internalType": "string",
          "name": "bio",
          "type": "string"
        }
      ],
      "stateMutability": "view",
      "type": "function"
    },
    {
      "inputs": [],
      "name": "renounceOwnership",
      "outputs": [],
      "stateMutability": "nonpayable",
      "type": "function"
    },
    {
      "inputs": [
        {
          "internalType": "address",
          "name": "from",
          "type": "address"
        },
        {
          "internalType": "address",
          "name": "to",
          "type": "address"
        },
        {
          "internalType": "uint256",
          "name": "tokenId",
          "type": "uint256"
        }
      ],
      "name": "safeTransferFrom",
      "outputs": [],
      "stateMutability": "nonpayable",
      "type": "function"
    },
    {
      "inputs": [
        {
          "internalType": "address",
          "name": "from",
          "type": "address"
        },
        {
          "internalType": "address",
          "name": "to",
          "type": "address"
        },
        {
          "internalType": "uint256",
          "name": "tokenId",
          "type": "uint256"
        },
        {
          "internalType": "bytes",
          "name": "data",
          "type": "bytes"
        }
      ],
      "name": "safeTransferFrom",
      "outputs": [],
      "stateMutability": "nonpayable",
      "type": "function"
    },
    {
      "inputs": [
        {
          "internalType": "address",
          "name": "operator",
          "type": "address"
        },
        {
          "internalType": "bool",
          "name": "approved",
          "type": "bool"
        }
      ],
      "name": "setApprovalForAll",
      "outputs": [],
      "stateMutability": "nonpayable",
      "type": "function"
    },
    {
      "inputs": [
        {
          "internalType": "bytes4",
          "name": "interfaceId",
          "type": "bytes4"
        }
      ],
      "name": "supportsInterface",
      "outputs": [
        {
          "internalType": "bool",
          "name": "",
          "type": "bool"
        }
      ],
      "stateMutability": "view",
      "type": "function"
    },
    {
      "inputs": [],
      "name": "symbol",
      "outputs": [
        {
          "internalType": "string",
          "name": "",
          "type": "string"
        }
      ],
      "stateMutability": "view",
      "type": "function"
    },
    {
      "inputs": [
        {
          "internalType": "uint256",
          "name": "index",
          "type": "uint256"
        }
      ],
      "name": "tokenByIndex",
      "outputs": [
        {
          "internalType": "uint256",
          "name": "",
          "type": "uint256"
        }
      ],
      "stateMutability": "view",
      "type": "function"
    },
    {
      "inputs": [
        {
          "internalType": "address",
          "name": "owner",
          "type": "address"
        },
        {
          "internalType": "uint256",
          "name": "index",
          "type": "uint256"
        }
      ],
      "name": "tokenOfOwnerByIndex",
      "outputs": [
        {
          "internalType": "uint256",
          "name": "",
          "type": "uint256"
        }
      ],
      "stateMutability": "view",
      "type": "function"
    },
    {
      "inputs": [
        {
          "internalType": "uint256",
          "name": "tokenId",
          "type": "uint256"
        }
      ],
      "name": "tokenURI",
      "outputs": [
        {
          "internalType": "string",
          "name": "",
          "type": "string"
        }
      ],
      "stateMutability": "view",
      "type": "function"
    },
    {
      "inputs": [],
      "name": "totalSupply",
      "outputs": [
        {
          "internalType": "uint256",
          "name": "",
          "type": "uint256"
        }
      ],
      "stateMutability": "view",
      "type": "function"
    },
    {
      "inputs": [
        {
          "internalType": "address",
          "name": "from",
          "type": "address"
        },
        {
          "internalType": "address",
          "name": "to",
          "type": "address"
        },
        {
          "internalType": "uint256",
          "name": "tokenId",
          "type": "uint256"
        }
      ],
      "name": "transferFrom",
      "outputs": [],
      "stateMutability": "nonpayable",
      "type": "function"
    },
    {
      "inputs": [
        {
          "internalType": "address",
          "name": "newOwner",
          "type": "address"
        }
      ],
      "name": "transferOwnership",
      "outputs": [],
      "stateMutability": "nonpayable",
      "type": "function"
    },
    {
      "inputs": [
        {
          "internalType": "uint256",
          "name": "_profileId",
          "type": "uint256"
        },
        {
          "components": [
            {
              "internalType": "address",
              "name": "owner",
              "type": "address"
            },
            {
              "internalType": "string",
              "name": "handle",
              "type": "string"
            },
            {
              "internalType": "string",
              "name": "name",
              "type": "string"
            },
            {
              "internalType": "string",
              "name": "imageURI",
              "type": "string"
            },
            {
              "internalType": "string",
              "name": "bio",
              "type": "string"
            }
          ],
          "internalType": "struct SocialWeb3.ProfileNFTData",
          "name": "_newProfileData",
          "type": "tuple"
        }
      ],
      "name": "updateProfile",
      "outputs": [],
      "stateMutability": "nonpayable",
      "type": "function"
    }
  ],
  "bytecode": "0x60806040523480156200001157600080fd5b506040518060400160405280600a81526020017f536f6369616c57656233000000000000000000000000000000000000000000008152506040518060400160405280600381526020017f53573300000000000000000000000000000000000000000000000000000000008152506200009e62000092620000ca60201b60201c565b620000d260201b60201c565b8160019081620000af919062000410565b508060029081620000c1919062000410565b505050620004f7565b600033905090565b60008060009054906101000a900473ffffffffffffffffffffffffffffffffffffffff169050816000806101000a81548173ffffffffffffffffffffffffffffffffffffffff021916908373ffffffffffffffffffffffffffffffffffffffff1602179055508173ffffffffffffffffffffffffffffffffffffffff168173ffffffffffffffffffffffffffffffffffffffff167f8be0079c531659141344cd1fd0a4f28419497f9722a3daafe3b4186f6b6457e060405160405180910390a35050565b600081519050919050565b7f4e487b7100000000000000000000000000000000000000000000000000000000600052604160045260246000fd5b7f4e487b7100000000000000000000000000000000000000000000000000000000600052602260045260246000fd5b600060028204905060018216806200021857607f821691505b6020821081036200022e576200022d620001d0565b5b50919050565b60008190508160005260206000209050919050565b60006020601f8301049050919050565b600082821b905092915050565b600060088302620002987fffffffffffffffffffffffffffffffffffffffffffffffffffffffffffffffff8262000259565b620002a4868362000259565b95508019841693508086168417925050509392505050565b6000819050919050565b6000819050919050565b6000620002f1620002eb620002e584620002bc565b620002c6565b620002bc565b9050919050565b6000819050919050565b6200030d83620002d0565b620003256200031c82620002f8565b84845462000266565b825550505050565b600090565b6200033c6200032d565b6200034981848462000302565b505050565b5b8181101562000371576200036560008262000332565b6001810190506200034f565b5050565b601f821115620003c0576200038a8162000234565b620003958462000249565b81016020851015620003a5578190505b620003bd620003b48562000249565b8301826200034e565b50505b505050565b600082821c905092915050565b6000620003e560001984600802620003c5565b1980831691505092915050565b6000620004008383620003d2565b9150826002028217905092915050565b6200041b8262000196565b67ffffffffffffffff811115620004375762000436620001a1565b5b620004438254620001ff565b6200045082828562000375565b600060209050601f83116001811462000488576000841562000473578287015190505b6200047f8582620003f2565b865550620004ef565b601f198416620004988662000234565b60005b82811015620004c2578489015182556001820191506020850194506020810190506200049b565b86831015620004e25784890151620004de601f891682620003d2565b8355505b6001600288020188555050505b505050505050565b61573680620005076000396000f3fe608060405234801561001057600080fd5b50600436106101e55760003560e01c80635cafa5391161010f5780639b85b1f1116100a2578063c87b56dd11610071578063c87b56dd146105e3578063e563f77814610613578063e985e9c51461062f578063f2fde38b1461065f576101e5565b80639b85b1f114610547578063a22cb46514610577578063b602066e14610593578063b88d4fde146105c7576101e5565b806370a08231116100de57806370a08231146104d1578063715018a6146105015780638da5cb5b1461050b57806395d89b4114610529576101e5565b80635cafa539146104235780635dd4dff41461045357806360a0ecda146104835780636352211e146104a1576101e5565b806323b872dd1161018757806340731c241161015657806340731c241461037757806342842e0e146103a75780634f6ccce7146103c357806354ebb999146103f3576101e5565b806323b872dd146102f35780632d6d852f1461030f5780632f745c591461032b578063392338f51461035b576101e5565b806308386eba116101c357806308386eba14610268578063095ea7b3146102865780630b1e7f83146102a257806318160ddd146102d5576101e5565b806301ffc9a7146101ea57806306fdde031461021a578063081812fc14610238575b600080fd5b61020460048036038101906101ff9190613562565b61067b565b60405161021191906135aa565b60405180910390f35b6102226106f5565b60405161022f9190613655565b60405180910390f35b610252600480360381019061024d91906136ad565b610787565b60405161025f919061371b565b60405180910390f35b6102706107cd565b60405161027d9190613745565b60405180910390f35b6102a0600480360381019061029b919061378c565b6107d3565b005b6102bc60048036038101906102b791906136ad565b6108ea565b6040516102cc94939291906137cc565b60405180910390f35b6102dd610a2a565b6040516102ea9190613745565b60405180910390f35b61030d6004803603810190610308919061381f565b610a37565b005b61032960048036038101906103249190613896565b610a97565b005b6103456004803603810190610340919061378c565b610b44565b6040516103529190613745565b60405180910390f35b61037560048036038101906103709190613957565b610be9565b005b610391600480360381019061038c91906136ad565b610e0f565b60405161039e9190613a9b565b60405180910390f35b6103c160048036038101906103bc919061381f565b610f74565b005b6103dd60048036038101906103d891906136ad565b610f94565b6040516103ea9190613745565b60405180910390f35b61040d600480360381019061040891906136ad565b611005565b60405161041a9190613be9565b60405180910390f35b61043d60048036038101906104389190613c0b565b611217565b60405161044a9190613be9565b60405180910390f35b61046d60048036038101906104689190613c58565b611473565b60405161047a9190613d34565b60405180910390f35b61048b61150a565b6040516104989190613745565b60405180910390f35b6104bb60048036038101906104b691906136ad565b611510565b6040516104c8919061371b565b60405180910390f35b6104eb60048036038101906104e69190613c58565b611596565b6040516104f89190613745565b60405180910390f35b61050961164d565b005b610513611661565b604051610520919061371b565b60405180910390f35b61053161168a565b60405161053e9190613655565b60405180910390f35b610561600480360381019061055c91906136ad565b61171c565b60405161056e9190613df0565b60405180910390f35b610591600480360381019061058c9190613e3e565b6119e7565b005b6105ad60048036038101906105a891906136ad565b6119fd565b6040516105be959493929190613e7e565b60405180910390f35b6105e160048036038101906105dc919061401d565b611c73565b005b6105fd60048036038101906105f891906136ad565b611cd5565b60405161060a9190613655565b60405180910390f35b61062d600480360381019061062891906140a0565b611d3d565b005b610649600480360381019061064491906140e9565b611f95565b60405161065691906135aa565b60405180910390f35b61067960048036038101906106749190613c58565b612029565b005b60007f780e9d63000000000000000000000000000000000000000000000000000000007bffffffffffffffffffffffffffffffffffffffffffffffffffffffff1916827bffffffffffffffffffffffffffffffffffffffffffffffffffffffff191614806106ee57506106ed826120ac565b5b9050919050565b60606001805461070490614158565b80601f016020809104026020016040519081016040528092919081815260200182805461073090614158565b801561077d5780601f106107525761010080835404028352916020019161077d565b820191906000526020600020905b81548152906001019060200180831161076057829003601f168201915b5050505050905090565b60006107928261218e565b6005600083815260200190815260200160002060009054906101000a900473ffffffffffffffffffffffffffffffffffffffff169050919050565b600b5481565b60006107de82611510565b90508073ffffffffffffffffffffffffffffffffffffffff168373ffffffffffffffffffffffffffffffffffffffff160361084e576040517f08c379a0000000000000000000000000000000000000000000000000000000008152600401610845906141fb565b60405180910390fd5b8073ffffffffffffffffffffffffffffffffffffffff1661086d6121d9565b73ffffffffffffffffffffffffffffffffffffffff16148061089c575061089b816108966121d9565b611f95565b5b6108db576040517f08c379a00000000000000000000000000000000000000000000000000000000081526004016108d29061428d565b60405180910390fd5b6108e583836121e1565b505050565b601060205280600052604060002060009150905080600001549080600101805461091390614158565b80601f016020809104026020016040519081016040528092919081815260200182805461093f90614158565b801561098c5780601f106109615761010080835404028352916020019161098c565b820191906000526020600020905b81548152906001019060200180831161096f57829003601f168201915b5050505050908060020180546109a190614158565b80601f01602080910402602001604051908101604052809291908181526020018280546109cd90614158565b8015610a1a5780601f106109ef57610100808354040283529160200191610a1a565b820191906000526020600020905b8154815290600101906020018083116109fd57829003601f168201915b5050505050908060030154905084565b6000600980549050905090565b610a48610a426121d9565b8261229a565b610a87576040517f08c379a0000000000000000000000000000000000000000000000000000000008152600401610a7e9061431f565b60405180910390fd5b610a9283838361232f565b505050565b610a9f612628565b600b54821115610ae4576040517f08c379a0000000000000000000000000000000000000000000000000000000008152600401610adb9061438b565b60405180910390fd5b80600e60008481526020019081526020016000208181610b049190614829565b9050507f2af2668216c13797f987f500352b5dcccb7f93d074b60a9ea347afb160cfed9e8282604051610b389291906149a8565b60405180910390a15050565b6000610b4f83611596565b8210610b90576040517f08c379a0000000000000000000000000000000000000000000000000000000008152600401610b8790614a4a565b60405180910390fd5b600760008473ffffffffffffffffffffffffffffffffffffffff1673ffffffffffffffffffffffffffffffffffffffff168152602001908152602001600020600083815260200190815260200160002054905092915050565b8383600f8282604051610bfd929190614a9a565b908152602001604051809103902060009054906101000a900460ff16610c58576040517f08c379a0000000000000000000000000000000000000000000000000000000008152600401610c4f90614aff565b60405180910390fd5b600c6000815480929190610c6b90614b4e565b91905055506040518060800160405280600c54815260200187878080601f016020809104026020016040519081016040528093929190818152602001838380828437600081840152601f19601f82011690508083019250505050505050815260200185858080601f016020809104026020016040519081016040528093929190818152602001838380828437600081840152601f19601f8201169050808301925050505050505081526020014281525060106000600c548152602001908152602001600020600082015181600001556020820151816001019081610d4f9190614b96565b506040820151816002019081610d659190614b96565b506060820151816003015590505060118686604051610d85929190614a9a565b9081526020016040518091039020600c5490806001815401808255809150506001900390600052602060002001600090919091909150557f104af12493094a08a9af15004754171fd42e502f3cffec40976bb4e6ecd1ae8a60106000600c548152602001908152602001600020604051610dff9190614d9d565b60405180910390a1505050505050565b610e17613489565b6010600083815260200190815260200160002060405180608001604052908160008201548152602001600182018054610e4f90614158565b80601f0160208091040260200160405190810160405280929190818152602001828054610e7b90614158565b8015610ec85780601f10610e9d57610100808354040283529160200191610ec8565b820191906000526020600020905b815481529060010190602001808311610eab57829003601f168201915b50505050508152602001600282018054610ee190614158565b80601f0160208091040260200160405190810160405280929190818152602001828054610f0d90614158565b8015610f5a5780601f10610f2f57610100808354040283529160200191610f5a565b820191906000526020600020905b815481529060010190602001808311610f3d57829003601f168201915b505050505081526020016003820154815250509050919050565b610f8f83838360405180602001604052806000815250611c73565b505050565b6000610f9e610a2a565b8210610fdf576040517f08c379a0000000000000000000000000000000000000000000000000000000008152600401610fd690614e31565b60405180910390fd5b60098281548110610ff357610ff2614e51565b5b90600052602060002001549050919050565b60606000600a67ffffffffffffffff81111561102457611023613ef2565b5b60405190808252806020026020018201604052801561105d57816020015b61104a613489565b8152602001906001900390816110425790505b5090506000600190505b600a811161120d5760106000828661107f9190614e80565b8152602001908152602001600020604051806080016040529081600082015481526020016001820180546110b290614158565b80601f01602080910402602001604051908101604052809291908181526020018280546110de90614158565b801561112b5780601f106111005761010080835404028352916020019161112b565b820191906000526020600020905b81548152906001019060200180831161110e57829003601f168201915b5050505050815260200160028201805461114490614158565b80601f016020809104026020016040519081016040528092919081815260200182805461117090614158565b80156111bd5780601f10611192576101008083540402835291602001916111bd565b820191906000526020600020905b8154815290600101906020018083116111a057829003601f168201915b50505050508152602001600382015481525050826001836111de9190614eb4565b815181106111ef576111ee614e51565b5b6020026020010181905250808061120590614b4e565b915050611067565b5080915050919050565b606060006011848460405161122d929190614a9a565b908152602001604051809103902080549050905060008167ffffffffffffffff81111561125d5761125c613ef2565b5b60405190808252806020026020018201604052801561129657816020015b611283613489565b81526020019060019003908161127b5790505b50905060005b828110156114675760106000601188886040516112ba929190614a9a565b908152602001604051809103902083815481106112da576112d9614e51565b5b906000526020600020015481526020019081526020016000206040518060800160405290816000820154815260200160018201805461131890614158565b80601f016020809104026020016040519081016040528092919081815260200182805461134490614158565b80156113915780601f1061136657610100808354040283529160200191611391565b820191906000526020600020905b81548152906001019060200180831161137457829003601f168201915b505050505081526020016002820180546113aa90614158565b80601f01602080910402602001604051908101604052809291908181526020018280546113d690614158565b80156114235780601f106113f857610100808354040283529160200191611423565b820191906000526020600020905b81548152906001019060200180831161140657829003601f168201915b5050505050815260200160038201548152505082828151811061144957611448614e51565b5b6020026020010181905250808061145f90614b4e565b91505061129c565b50809250505092915050565b6060600d60008373ffffffffffffffffffffffffffffffffffffffff1673ffffffffffffffffffffffffffffffffffffffff1681526020019081526020016000208054806020026020016040519081016040528092919081815260200182805480156114fe57602002820191906000526020600020905b8154815260200190600101908083116114ea575b50505050509050919050565b600c5481565b60008061151c836126a6565b9050600073ffffffffffffffffffffffffffffffffffffffff168173ffffffffffffffffffffffffffffffffffffffff160361158d576040517f08c379a000000000000000000000000000000000000000000000000000000000815260040161158490614f34565b60405180910390fd5b80915050919050565b60008073ffffffffffffffffffffffffffffffffffffffff168273ffffffffffffffffffffffffffffffffffffffff1603611606576040517f08c379a00000000000000000000000000000000000000000000000000000000081526004016115fd90614fc6565b60405180910390fd5b600460008373ffffffffffffffffffffffffffffffffffffffff1673ffffffffffffffffffffffffffffffffffffffff168152602001908152602001600020549050919050565b611655612628565b61165f60006126e3565b565b60008060009054906101000a900473ffffffffffffffffffffffffffffffffffffffff16905090565b60606002805461169990614158565b80601f01602080910402602001604051908101604052809291908181526020018280546116c590614158565b80156117125780601f106116e757610100808354040283529160200191611712565b820191906000526020600020905b8154815290600101906020018083116116f557829003601f168201915b5050505050905090565b6117246134b1565b600e60008381526020019081526020016000206040518060a00160405290816000820160009054906101000a900473ffffffffffffffffffffffffffffffffffffffff1673ffffffffffffffffffffffffffffffffffffffff1673ffffffffffffffffffffffffffffffffffffffff1681526020016001820180546117a890614158565b80601f01602080910402602001604051908101604052809291908181526020018280546117d490614158565b80156118215780601f106117f657610100808354040283529160200191611821565b820191906000526020600020905b81548152906001019060200180831161180457829003601f168201915b5050505050815260200160028201805461183a90614158565b80601f016020809104026020016040519081016040528092919081815260200182805461186690614158565b80156118b35780601f10611888576101008083540402835291602001916118b3565b820191906000526020600020905b81548152906001019060200180831161189657829003601f168201915b505050505081526020016003820180546118cc90614158565b80601f01602080910402602001604051908101604052809291908181526020018280546118f890614158565b80156119455780601f1061191a57610100808354040283529160200191611945565b820191906000526020600020905b81548152906001019060200180831161192857829003601f168201915b5050505050815260200160048201805461195e90614158565b80601f016020809104026020016040519081016040528092919081815260200182805461198a90614158565b80156119d75780601f106119ac576101008083540402835291602001916119d7565b820191906000526020600020905b8154815290600101906020018083116119ba57829003601f168201915b5050505050815250509050919050565b6119f96119f26121d9565b83836127a7565b5050565b600e6020528060005260406000206000915090508060000160009054906101000a900473ffffffffffffffffffffffffffffffffffffffff1690806001018054611a4690614158565b80601f0160208091040260200160405190810160405280929190818152602001828054611a7290614158565b8015611abf5780601f10611a9457610100808354040283529160200191611abf565b820191906000526020600020905b815481529060010190602001808311611aa257829003601f168201915b505050505090806002018054611ad490614158565b80601f0160208091040260200160405190810160405280929190818152602001828054611b0090614158565b8015611b4d5780601f10611b2257610100808354040283529160200191611b4d565b820191906000526020600020905b815481529060010190602001808311611b3057829003601f168201915b505050505090806003018054611b6290614158565b80601f0160208091040260200160405190810160405280929190818152602001828054611b8e90614158565b8015611bdb5780601f10611bb057610100808354040283529160200191611bdb565b820191906000526020600020905b815481529060010190602001808311611bbe57829003601f168201915b505050505090806004018054611bf090614158565b80601f0160208091040260200160405190810160405280929190818152602001828054611c1c90614158565b8015611c695780601f10611c3e57610100808354040283529160200191611c69565b820191906000526020600020905b815481529060010190602001808311611c4c57829003601f168201915b5050505050905085565b611c84611c7e6121d9565b8361229a565b611cc3576040517f08c379a0000000000000000000000000000000000000000000000000000000008152600401611cba9061431f565b60405180910390fd5b611ccf84848484612913565b50505050565b6060611ce08261218e565b6000611cea61296f565b90506000815111611d0a5760405180602001604052806000815250611d35565b80611d1484612986565b604051602001611d25929190615017565b6040516020818303038152906040525b915050919050565b808060200190611d4d9190614490565b600f8282604051611d5f929190614a9a565b908152602001604051809103902060009054906101000a900460ff1615611dbb576040517f08c379a0000000000000000000000000000000000000000000000000000000008152600401611db290615087565b60405180910390fd5b826000016020810190611dce9190613c58565b3373ffffffffffffffffffffffffffffffffffffffff168173ffffffffffffffffffffffffffffffffffffffff1614611e3c576040517f08c379a0000000000000000000000000000000000000000000000000000000008152600401611e33906150f3565b60405180910390fd5b600b6000815480929190611e4f90614b4e565b919050555083600e6000600b5481526020019081526020016000208181611e769190614829565b9050506001600f858060200190611e8d9190614490565b604051611e9b929190614a9a565b908152602001604051809103902060006101000a81548160ff021916908315150217905550611ede846000016020810190611ed69190613c58565b600b54612a54565b600d6000856000016020810190611ef59190613c58565b73ffffffffffffffffffffffffffffffffffffffff1673ffffffffffffffffffffffffffffffffffffffff168152602001908152602001600020600b5490806001815401808255809150506001900390600052602060002001600090919091909150557f68d89ba37b6b8d0b7cb139771c573485dd925fbb3007cfb62cb832bc2a24850a84604051611f879190615113565b60405180910390a150505050565b6000600660008473ffffffffffffffffffffffffffffffffffffffff1673ffffffffffffffffffffffffffffffffffffffff16815260200190815260200160002060008373ffffffffffffffffffffffffffffffffffffffff1673ffffffffffffffffffffffffffffffffffffffff16815260200190815260200160002060009054906101000a900460ff16905092915050565b612031612628565b600073ffffffffffffffffffffffffffffffffffffffff168173ffffffffffffffffffffffffffffffffffffffff16036120a0576040517f08c379a0000000000000000000000000000000000000000000000000000000008152600401612097906151a7565b60405180910390fd5b6120a9816126e3565b50565b60007f80ac58cd000000000000000000000000000000000000000000000000000000007bffffffffffffffffffffffffffffffffffffffffffffffffffffffff1916827bffffffffffffffffffffffffffffffffffffffffffffffffffffffff1916148061217757507f5b5e139f000000000000000000000000000000000000000000000000000000007bffffffffffffffffffffffffffffffffffffffffffffffffffffffff1916827bffffffffffffffffffffffffffffffffffffffffffffffffffffffff1916145b80612187575061218682612c71565b5b9050919050565b61219781612cdb565b6121d6576040517f08c379a00000000000000000000000000000000000000000000000000000000081526004016121cd90614f34565b60405180910390fd5b50565b600033905090565b816005600083815260200190815260200160002060006101000a81548173ffffffffffffffffffffffffffffffffffffffff021916908373ffffffffffffffffffffffffffffffffffffffff160217905550808273ffffffffffffffffffffffffffffffffffffffff1661225483611510565b73ffffffffffffffffffffffffffffffffffffffff167f8c5be1e5ebec7d5bd14f71427d1e84f3dd0314c0f7b2291e5b200ac8c7c3b92560405160405180910390a45050565b6000806122a683611510565b90508073ffffffffffffffffffffffffffffffffffffffff168473ffffffffffffffffffffffffffffffffffffffff1614806122e857506122e78185611f95565b5b8061232657508373ffffffffffffffffffffffffffffffffffffffff1661230e84610787565b73ffffffffffffffffffffffffffffffffffffffff16145b91505092915050565b8273ffffffffffffffffffffffffffffffffffffffff1661234f82611510565b73ffffffffffffffffffffffffffffffffffffffff16146123a5576040517f08c379a000000000000000000000000000000000000000000000000000000000815260040161239c90615239565b60405180910390fd5b600073ffffffffffffffffffffffffffffffffffffffff168273ffffffffffffffffffffffffffffffffffffffff1603612414576040517f08c379a000000000000000000000000000000000000000000000000000000000815260040161240b906152cb565b60405180910390fd5b6124218383836001612d1c565b8273ffffffffffffffffffffffffffffffffffffffff1661244182611510565b73ffffffffffffffffffffffffffffffffffffffff1614612497576040517f08c379a000000000000000000000000000000000000000000000000000000000815260040161248e90615239565b60405180910390fd5b6005600082815260200190815260200160002060006101000a81549073ffffffffffffffffffffffffffffffffffffffff02191690556001600460008573ffffffffffffffffffffffffffffffffffffffff1673ffffffffffffffffffffffffffffffffffffffff168152602001908152602001600020600082825403925050819055506001600460008473ffffffffffffffffffffffffffffffffffffffff1673ffffffffffffffffffffffffffffffffffffffff16815260200190815260200160002060008282540192505081905550816003600083815260200190815260200160002060006101000a81548173ffffffffffffffffffffffffffffffffffffffff021916908373ffffffffffffffffffffffffffffffffffffffff160217905550808273ffffffffffffffffffffffffffffffffffffffff168473ffffffffffffffffffffffffffffffffffffffff167fddf252ad1be2c89b69c2b068fc378daa952ba7f163c4a11628f55a4df523b3ef60405160405180910390a46126238383836001612e7a565b505050565b6126306121d9565b73ffffffffffffffffffffffffffffffffffffffff1661264e611661565b73ffffffffffffffffffffffffffffffffffffffff16146126a4576040517f08c379a000000000000000000000000000000000000000000000000000000000815260040161269b90615337565b60405180910390fd5b565b60006003600083815260200190815260200160002060009054906101000a900473ffffffffffffffffffffffffffffffffffffffff169050919050565b60008060009054906101000a900473ffffffffffffffffffffffffffffffffffffffff169050816000806101000a81548173ffffffffffffffffffffffffffffffffffffffff021916908373ffffffffffffffffffffffffffffffffffffffff1602179055508173ffffffffffffffffffffffffffffffffffffffff168173ffffffffffffffffffffffffffffffffffffffff167f8be0079c531659141344cd1fd0a4f28419497f9722a3daafe3b4186f6b6457e060405160405180910390a35050565b8173ffffffffffffffffffffffffffffffffffffffff168373ffffffffffffffffffffffffffffffffffffffff1603612815576040517f08c379a000000000000000000000000000000000000000000000000000000000815260040161280c906153a3565b60405180910390fd5b80600660008573ffffffffffffffffffffffffffffffffffffffff1673ffffffffffffffffffffffffffffffffffffffff16815260200190815260200160002060008473ffffffffffffffffffffffffffffffffffffffff1673ffffffffffffffffffffffffffffffffffffffff16815260200190815260200160002060006101000a81548160ff0219169083151502179055508173ffffffffffffffffffffffffffffffffffffffff168373ffffffffffffffffffffffffffffffffffffffff167f17307eab39ab6107e8899845ad3d59bd9653f200f220920489ca2b5937696c318360405161290691906135aa565b60405180910390a3505050565b61291e84848461232f565b61292a84848484612e80565b612969576040517f08c379a000000000000000000000000000000000000000000000000000000000815260040161296090615435565b60405180910390fd5b50505050565b606060405180602001604052806000815250905090565b60606000600161299584613007565b01905060008167ffffffffffffffff8111156129b4576129b3613ef2565b5b6040519080825280601f01601f1916602001820160405280156129e65781602001600182028036833780820191505090505b509050600082602001820190505b600115612a49578080600190039150507f3031323334353637383961626364656600000000000000000000000000000000600a86061a8153600a8581612a3d57612a3c615455565b5b049450600085036129f4575b819350505050919050565b600073ffffffffffffffffffffffffffffffffffffffff168273ffffffffffffffffffffffffffffffffffffffff1603612ac3576040517f08c379a0000000000000000000000000000000000000000000000000000000008152600401612aba906154d0565b60405180910390fd5b612acc81612cdb565b15612b0c576040517f08c379a0000000000000000000000000000000000000000000000000000000008152600401612b039061553c565b60405180910390fd5b612b1a600083836001612d1c565b612b2381612cdb565b15612b63576040517f08c379a0000000000000000000000000000000000000000000000000000000008152600401612b5a9061553c565b60405180910390fd5b6001600460008473ffffffffffffffffffffffffffffffffffffffff1673ffffffffffffffffffffffffffffffffffffffff16815260200190815260200160002060008282540192505081905550816003600083815260200190815260200160002060006101000a81548173ffffffffffffffffffffffffffffffffffffffff021916908373ffffffffffffffffffffffffffffffffffffffff160217905550808273ffffffffffffffffffffffffffffffffffffffff16600073ffffffffffffffffffffffffffffffffffffffff167fddf252ad1be2c89b69c2b068fc378daa952ba7f163c4a11628f55a4df523b3ef60405160405180910390a4612c6d600083836001612e7a565b5050565b60007f01ffc9a7000000000000000000000000000000000000000000000000000000007bffffffffffffffffffffffffffffffffffffffffffffffffffffffff1916827bffffffffffffffffffffffffffffffffffffffffffffffffffffffff1916149050919050565b60008073ffffffffffffffffffffffffffffffffffffffff16612cfd836126a6565b73ffffffffffffffffffffffffffffffffffffffff1614159050919050565b612d288484848461315a565b6001811115612d6c576040517f08c379a0000000000000000000000000000000000000000000000000000000008152600401612d63906155ce565b60405180910390fd5b6000829050600073ffffffffffffffffffffffffffffffffffffffff168573ffffffffffffffffffffffffffffffffffffffff1603612db357612dae81613160565b612df2565b8373ffffffffffffffffffffffffffffffffffffffff168573ffffffffffffffffffffffffffffffffffffffff1614612df157612df085826131a9565b5b5b600073ffffffffffffffffffffffffffffffffffffffff168473ffffffffffffffffffffffffffffffffffffffff1603612e3457612e2f81613316565b612e73565b8473ffffffffffffffffffffffffffffffffffffffff168473ffffffffffffffffffffffffffffffffffffffff1614612e7257612e7184826133e7565b5b5b5050505050565b50505050565b6000612ea18473ffffffffffffffffffffffffffffffffffffffff16613466565b15612ffa578373ffffffffffffffffffffffffffffffffffffffff1663150b7a02612eca6121d9565b8786866040518563ffffffff1660e01b8152600401612eec9493929190615643565b6020604051808303816000875af1925050508015612f2857506040513d601f19601f82011682018060405250810190612f2591906156a4565b60015b612faa573d8060008114612f58576040519150601f19603f3d011682016040523d82523d6000602084013e612f5d565b606091505b506000815103612fa2576040517f08c379a0000000000000000000000000000000000000000000000000000000008152600401612f9990615435565b60405180910390fd5b805181602001fd5b63150b7a0260e01b7bffffffffffffffffffffffffffffffffffffffffffffffffffffffff1916817bffffffffffffffffffffffffffffffffffffffffffffffffffffffff191614915050612fff565b600190505b949350505050565b600080600090507a184f03e93ff9f4daa797ed6e38ed64bf6a1f0100000000000000008310613065577a184f03e93ff9f4daa797ed6e38ed64bf6a1f010000000000000000838161305b5761305a615455565b5b0492506040810190505b6d04ee2d6d415b85acef810000000083106130a2576d04ee2d6d415b85acef8100000000838161309857613097615455565b5b0492506020810190505b662386f26fc1000083106130d157662386f26fc1000083816130c7576130c6615455565b5b0492506010810190505b6305f5e10083106130fa576305f5e10083816130f0576130ef615455565b5b0492506008810190505b612710831061311f57612710838161311557613114615455565b5b0492506004810190505b60648310613142576064838161313857613137615455565b5b0492506002810190505b600a8310613151576001810190505b80915050919050565b50505050565b600980549050600a600083815260200190815260200160002081905550600981908060018154018082558091505060019003906000526020600020016000909190919091505550565b600060016131b684611596565b6131c09190614eb4565b90506000600860008481526020019081526020016000205490508181146132a5576000600760008673ffffffffffffffffffffffffffffffffffffffff1673ffffffffffffffffffffffffffffffffffffffff168152602001908152602001600020600084815260200190815260200160002054905080600760008773ffffffffffffffffffffffffffffffffffffffff1673ffffffffffffffffffffffffffffffffffffffff168152602001908152602001600020600084815260200190815260200160002081905550816008600083815260200190815260200160002081905550505b6008600084815260200190815260200160002060009055600760008573ffffffffffffffffffffffffffffffffffffffff1673ffffffffffffffffffffffffffffffffffffffff16815260200190815260200160002060008381526020019081526020016000206000905550505050565b6000600160098054905061332a9190614eb4565b90506000600a600084815260200190815260200160002054905060006009838154811061335a57613359614e51565b5b90600052602060002001549050806009838154811061337c5761337b614e51565b5b906000526020600020018190555081600a600083815260200190815260200160002081905550600a60008581526020019081526020016000206000905560098054806133cb576133ca6156d1565b5b6001900381819060005260206000200160009055905550505050565b60006133f283611596565b905081600760008573ffffffffffffffffffffffffffffffffffffffff1673ffffffffffffffffffffffffffffffffffffffff168152602001908152602001600020600083815260200190815260200160002081905550806008600084815260200190815260200160002081905550505050565b6000808273ffffffffffffffffffffffffffffffffffffffff163b119050919050565b6040518060800160405280600081526020016060815260200160608152602001600081525090565b6040518060a00160405280600073ffffffffffffffffffffffffffffffffffffffff168152602001606081526020016060815260200160608152602001606081525090565b6000604051905090565b600080fd5b600080fd5b60007fffffffff0000000000000000000000000000000000000000000000000000000082169050919050565b61353f8161350a565b811461354a57600080fd5b50565b60008135905061355c81613536565b92915050565b60006020828403121561357857613577613500565b5b60006135868482850161354d565b91505092915050565b60008115159050919050565b6135a48161358f565b82525050565b60006020820190506135bf600083018461359b565b92915050565b600081519050919050565b600082825260208201905092915050565b60005b838110156135ff5780820151818401526020810190506135e4565b60008484015250505050565b6000601f19601f8301169050919050565b6000613627826135c5565b61363181856135d0565b93506136418185602086016135e1565b61364a8161360b565b840191505092915050565b6000602082019050818103600083015261366f818461361c565b905092915050565b6000819050919050565b61368a81613677565b811461369557600080fd5b50565b6000813590506136a781613681565b92915050565b6000602082840312156136c3576136c2613500565b5b60006136d184828501613698565b91505092915050565b600073ffffffffffffffffffffffffffffffffffffffff82169050919050565b6000613705826136da565b9050919050565b613715816136fa565b82525050565b6000602082019050613730600083018461370c565b92915050565b61373f81613677565b82525050565b600060208201905061375a6000830184613736565b92915050565b613769816136fa565b811461377457600080fd5b50565b60008135905061378681613760565b92915050565b600080604083850312156137a3576137a2613500565b5b60006137b185828601613777565b92505060206137c285828601613698565b9150509250929050565b60006080820190506137e16000830187613736565b81810360208301526137f3818661361c565b90508181036040830152613807818561361c565b90506138166060830184613736565b95945050505050565b60008060006060848603121561383857613837613500565b5b600061384686828701613777565b935050602061385786828701613777565b925050604061386886828701613698565b9150509250925092565b600080fd5b600060a0828403121561388d5761388c613872565b5b81905092915050565b600080604083850312156138ad576138ac613500565b5b60006138bb85828601613698565b925050602083013567ffffffffffffffff8111156138dc576138db613505565b5b6138e885828601613877565b9150509250929050565b600080fd5b600080fd5b600080fd5b60008083601f840112613917576139166138f2565b5b8235905067ffffffffffffffff811115613934576139336138f7565b5b6020830191508360018202830111156139505761394f6138fc565b5b9250929050565b6000806000806040858703121561397157613970613500565b5b600085013567ffffffffffffffff81111561398f5761398e613505565b5b61399b87828801613901565b9450945050602085013567ffffffffffffffff8111156139be576139bd613505565b5b6139ca87828801613901565b925092505092959194509250565b6139e181613677565b82525050565b600082825260208201905092915050565b6000613a03826135c5565b613a0d81856139e7565b9350613a1d8185602086016135e1565b613a268161360b565b840191505092915050565b6000608083016000830151613a4960008601826139d8565b5060208301518482036020860152613a6182826139f8565b91505060408301518482036040860152613a7b82826139f8565b9150506060830151613a9060608601826139d8565b508091505092915050565b60006020820190508181036000830152613ab58184613a31565b905092915050565b600081519050919050565b600082825260208201905092915050565b6000819050602082019050919050565b6000608083016000830151613b0160008601826139d8565b5060208301518482036020860152613b1982826139f8565b91505060408301518482036040860152613b3382826139f8565b9150506060830151613b4860608601826139d8565b508091505092915050565b6000613b5f8383613ae9565b905092915050565b6000602082019050919050565b6000613b7f82613abd565b613b898185613ac8565b935083602082028501613b9b85613ad9565b8060005b85811015613bd75784840389528151613bb88582613b53565b9450613bc383613b67565b925060208a01995050600181019050613b9f565b50829750879550505050505092915050565b60006020820190508181036000830152613c038184613b74565b905092915050565b60008060208385031215613c2257613c21613500565b5b600083013567ffffffffffffffff811115613c4057613c3f613505565b5b613c4c85828601613901565b92509250509250929050565b600060208284031215613c6e57613c6d613500565b5b6000613c7c84828501613777565b91505092915050565b600081519050919050565b600082825260208201905092915050565b6000819050602082019050919050565b6000613cbd83836139d8565b60208301905092915050565b6000602082019050919050565b6000613ce182613c85565b613ceb8185613c90565b9350613cf683613ca1565b8060005b83811015613d27578151613d0e8882613cb1565b9750613d1983613cc9565b925050600181019050613cfa565b5085935050505092915050565b60006020820190508181036000830152613d4e8184613cd6565b905092915050565b613d5f816136fa565b82525050565b600060a083016000830151613d7d6000860182613d56565b5060208301518482036020860152613d9582826139f8565b91505060408301518482036040860152613daf82826139f8565b91505060608301518482036060860152613dc982826139f8565b91505060808301518482036080860152613de382826139f8565b9150508091505092915050565b60006020820190508181036000830152613e0a8184613d65565b905092915050565b613e1b8161358f565b8114613e2657600080fd5b50565b600081359050613e3881613e12565b92915050565b60008060408385031215613e5557613e54613500565b5b6000613e6385828601613777565b9250506020613e7485828601613e29565b9150509250929050565b600060a082019050613e93600083018861370c565b8181036020830152613ea5818761361c565b90508181036040830152613eb9818661361c565b90508181036060830152613ecd818561361c565b90508181036080830152613ee1818461361c565b90509695505050505050565b600080fd5b7f4e487b7100000000000000000000000000000000000000000000000000000000600052604160045260246000fd5b613f2a8261360b565b810181811067ffffffffffffffff82111715613f4957613f48613ef2565b5b80604052505050565b6000613f5c6134f6565b9050613f688282613f21565b919050565b600067ffffffffffffffff821115613f8857613f87613ef2565b5b613f918261360b565b9050602081019050919050565b82818337600083830152505050565b6000613fc0613fbb84613f6d565b613f52565b905082815260208101848484011115613fdc57613fdb613eed565b5b613fe7848285613f9e565b509392505050565b600082601f830112614004576140036138f2565b5b8135614014848260208601613fad565b91505092915050565b6000806000806080858703121561403757614036613500565b5b600061404587828801613777565b945050602061405687828801613777565b935050604061406787828801613698565b925050606085013567ffffffffffffffff81111561408857614087613505565b5b61409487828801613fef565b91505092959194509250565b6000602082840312156140b6576140b5613500565b5b600082013567ffffffffffffffff8111156140d4576140d3613505565b5b6140e084828501613877565b91505092915050565b60008060408385031215614100576140ff613500565b5b600061410e85828601613777565b925050602061411f85828601613777565b9150509250929050565b7f4e487b7100000000000000000000000000000000000000000000000000000000600052602260045260246000fd5b6000600282049050600182168061417057607f821691505b60208210810361418357614182614129565b5b50919050565b7f4552433732313a20617070726f76616c20746f2063757272656e74206f776e6560008201527f7200000000000000000000000000000000000000000000000000000000000000602082015250565b60006141e56021836135d0565b91506141f082614189565b604082019050919050565b60006020820190508181036000830152614214816141d8565b9050919050565b7f4552433732313a20617070726f76652063616c6c6572206973206e6f7420746f60008201527f6b656e206f776e6572206f7220617070726f76656420666f7220616c6c000000602082015250565b6000614277603d836135d0565b91506142828261421b565b604082019050919050565b600060208201905081810360008301526142a68161426a565b9050919050565b7f4552433732313a2063616c6c6572206973206e6f7420746f6b656e206f776e6560008201527f72206f7220617070726f76656400000000000000000000000000000000000000602082015250565b6000614309602d836135d0565b9150614314826142ad565b604082019050919050565b60006020820190508181036000830152614338816142fc565b9050919050565b7f496e76616c69642070726f66696c652049440000000000000000000000000000600082015250565b60006143756012836135d0565b91506143808261433f565b602082019050919050565b600060208201905081810360008301526143a481614368565b9050919050565b600081356143b881613760565b80915050919050565b60008160001b9050919050565b600073ffffffffffffffffffffffffffffffffffffffff6143ee846143c1565b9350801983169250808416831791505092915050565b6000819050919050565b600061442961442461441f846136da565b614404565b6136da565b9050919050565b600061443b8261440e565b9050919050565b600061444d82614430565b9050919050565b6000819050919050565b61446782614442565b61447a61447382614454565b83546143ce565b8255505050565b600080fd5b600080fd5b600080fd5b600080833560016020038436030381126144ad576144ac614481565b5b80840192508235915067ffffffffffffffff8211156144cf576144ce614486565b5b6020830192506001820236038313156144eb576144ea61448b565b5b509250929050565b600082905092915050565b60008190508160005260206000209050919050565b60006020601f8301049050919050565b600082821b905092915050565b6000600883026145607fffffffffffffffffffffffffffffffffffffffffffffffffffffffffffffffff82614523565b61456a8683614523565b95508019841693508086168417925050509392505050565b600061459d61459861459384613677565b614404565b613677565b9050919050565b6000819050919050565b6145b783614582565b6145cb6145c3826145a4565b848454614530565b825550505050565b600090565b6145e06145d3565b6145eb8184846145ae565b505050565b5b8181101561460f576146046000826145d8565b6001810190506145f1565b5050565b601f82111561465457614625816144fe565b61462e84614513565b8101602085101561463d578190505b61465161464985614513565b8301826145f0565b50505b505050565b600082821c905092915050565b600061467760001984600802614659565b1980831691505092915050565b60006146908383614666565b9150826002028217905092915050565b6146aa83836144f3565b67ffffffffffffffff8111156146c3576146c2613ef2565b5b6146cd8254614158565b6146d8828285614613565b6000601f83116001811461470757600084156146f5578287013590505b6146ff8582614684565b865550614767565b601f198416614715866144fe565b60005b8281101561473d57848901358255600182019150602085019450602081019050614718565b8683101561475a5784890135614756601f891682614666565b8355505b6001600288020188555050505b50505050505050565b61477b8383836146a0565b505050565b600081016000830180614792816143ab565b905061479e818461445e565b50505060018101602083016147b38185614490565b6147be818386614770565b5050505060028101604083016147d48185614490565b6147df818386614770565b5050505060038101606083016147f58185614490565b614800818386614770565b5050505060048101608083016148168185614490565b614821818386614770565b505050505050565b6148338282614780565b5050565b60006148466020840184613777565b905092915050565b600080fd5b600080fd5b600080fd5b6000808335600160200384360303811261487a57614879614858565b5b83810192508235915060208301925067ffffffffffffffff8211156148a2576148a161484e565b5b6001820236038313156148b8576148b7614853565b5b509250929050565b60006148cc83856139e7565b93506148d9838584613f9e565b6148e28361360b565b840190509392505050565b600060a083016149006000840184614837565b61490d6000860182613d56565b5061491b602084018461485d565b858303602087015261492e8382846148c0565b9250505061493f604084018461485d565b85830360408701526149528382846148c0565b92505050614963606084018461485d565b85830360608701526149768382846148c0565b92505050614987608084018461485d565b858303608087015261499a8382846148c0565b925050508091505092915050565b60006040820190506149bd6000830185613736565b81810360208301526149cf81846148ed565b90509392505050565b7f455243373231456e756d657261626c653a206f776e657220696e646578206f7560008201527f74206f6620626f756e6473000000000000000000000000000000000000000000602082015250565b6000614a34602b836135d0565b9150614a3f826149d8565b604082019050919050565b60006020820190508181036000830152614a6381614a27565b9050919050565b600081905092915050565b6000614a818385614a6a565b9350614a8e838584613f9e565b82840190509392505050565b6000614aa7828486614a75565b91508190509392505050565b7f48616e646c65206e6f7420666f756e6400000000000000000000000000000000600082015250565b6000614ae96010836135d0565b9150614af482614ab3565b602082019050919050565b60006020820190508181036000830152614b1881614adc565b9050919050565b7f4e487b7100000000000000000000000000000000000000000000000000000000600052601160045260246000fd5b6000614b5982613677565b91507fffffffffffffffffffffffffffffffffffffffffffffffffffffffffffffffff8203614b8b57614b8a614b1f565b5b600182019050919050565b614b9f826135c5565b67ffffffffffffffff811115614bb857614bb7613ef2565b5b614bc28254614158565b614bcd828285614613565b600060209050601f831160018114614c005760008415614bee578287015190505b614bf88582614684565b865550614c60565b601f198416614c0e866144fe565b60005b82811015614c3657848901518255600182019150602085019450602081019050614c11565b86831015614c535784890151614c4f601f891682614666565b8355505b6001600288020188555050505b505050505050565b60008160001c9050919050565b6000819050919050565b6000614c92614c8d83614c68565b614c75565b9050919050565b60008154614ca681614158565b614cb081866139e7565b94506001821660008114614ccb5760018114614ce157614d14565b60ff198316865281151560200286019350614d14565b614cea856144fe565b60005b83811015614d0c57815481890152600182019150602081019050614ced565b808801955050505b50505092915050565b6000608083016000808401549050614d3481614c7f565b614d4160008701826139d8565b50600184018583036020870152614d588382614c99565b925050600284018583036040870152614d718382614c99565b92505060038401549050614d8481614c7f565b614d9160608701826139d8565b50819250505092915050565b60006020820190508181036000830152614db78184614d1d565b905092915050565b7f455243373231456e756d657261626c653a20676c6f62616c20696e646578206f60008201527f7574206f6620626f756e64730000000000000000000000000000000000000000602082015250565b6000614e1b602c836135d0565b9150614e2682614dbf565b604082019050919050565b60006020820190508181036000830152614e4a81614e0e565b9050919050565b7f4e487b7100000000000000000000000000000000000000000000000000000000600052603260045260246000fd5b6000614e8b82613677565b9150614e9683613677565b9250828201905080821115614eae57614ead614b1f565b5b92915050565b6000614ebf82613677565b9150614eca83613677565b9250828203905081811115614ee257614ee1614b1f565b5b92915050565b7f4552433732313a20696e76616c696420746f6b656e2049440000000000000000600082015250565b6000614f1e6018836135d0565b9150614f2982614ee8565b602082019050919050565b60006020820190508181036000830152614f4d81614f11565b9050919050565b7f4552433732313a2061646472657373207a65726f206973206e6f74206120766160008201527f6c6964206f776e65720000000000000000000000000000000000000000000000602082015250565b6000614fb06029836135d0565b9150614fbb82614f54565b604082019050919050565b60006020820190508181036000830152614fdf81614fa3565b9050919050565b6000614ff1826135c5565b614ffb8185614a6a565b935061500b8185602086016135e1565b80840191505092915050565b60006150238285614fe6565b915061502f8284614fe6565b91508190509392505050565b7f48616e646c6520616c7265616479206578697374730000000000000000000000600082015250565b60006150716015836135d0565b915061507c8261503b565b602082019050919050565b600060208201905081810360008301526150a081615064565b9050919050565b7f4f776e657220646966666572656e742066726f6d206d73672e73656e64657200600082015250565b60006150dd601f836135d0565b91506150e8826150a7565b602082019050919050565b6000602082019050818103600083015261510c816150d0565b9050919050565b6000602082019050818103600083015261512d81846148ed565b905092915050565b7f4f776e61626c653a206e6577206f776e657220697320746865207a65726f206160008201527f6464726573730000000000000000000000000000000000000000000000000000602082015250565b60006151916026836135d0565b915061519c82615135565b604082019050919050565b600060208201905081810360008301526151c081615184565b9050919050565b7f4552433732313a207472616e736665722066726f6d20696e636f72726563742060008201527f6f776e6572000000000000000000000000000000000000000000000000000000602082015250565b60006152236025836135d0565b915061522e826151c7565b604082019050919050565b6000602082019050818103600083015261525281615216565b9050919050565b7f4552433732313a207472616e7366657220746f20746865207a65726f2061646460008201527f7265737300000000000000000000000000000000000000000000000000000000602082015250565b60006152b56024836135d0565b91506152c082615259565b604082019050919050565b600060208201905081810360008301526152e4816152a8565b9050919050565b7f4f776e61626c653a2063616c6c6572206973206e6f7420746865206f776e6572600082015250565b60006153216020836135d0565b915061532c826152eb565b602082019050919050565b6000602082019050818103600083015261535081615314565b9050919050565b7f4552433732313a20617070726f766520746f2063616c6c657200000000000000600082015250565b600061538d6019836135d0565b915061539882615357565b602082019050919050565b600060208201905081810360008301526153bc81615380565b9050919050565b7f4552433732313a207472616e7366657220746f206e6f6e20455243373231526560008201527f63656976657220696d706c656d656e7465720000000000000000000000000000602082015250565b600061541f6032836135d0565b915061542a826153c3565b604082019050919050565b6000602082019050818103600083015261544e81615412565b9050919050565b7f4e487b7100000000000000000000000000000000000000000000000000000000600052601260045260246000fd5b7f4552433732313a206d696e7420746f20746865207a65726f2061646472657373600082015250565b60006154ba6020836135d0565b91506154c582615484565b602082019050919050565b600060208201905081810360008301526154e9816154ad565b9050919050565b7f4552433732313a20746f6b656e20616c7265616479206d696e74656400000000600082015250565b6000615526601c836135d0565b9150615531826154f0565b602082019050919050565b6000602082019050818103600083015261555581615519565b9050919050565b7f455243373231456e756d657261626c653a20636f6e736563757469766520747260008201527f616e7366657273206e6f7420737570706f727465640000000000000000000000602082015250565b60006155b86035836135d0565b91506155c38261555c565b604082019050919050565b600060208201905081810360008301526155e7816155ab565b9050919050565b600081519050919050565b600082825260208201905092915050565b6000615615826155ee565b61561f81856155f9565b935061562f8185602086016135e1565b6156388161360b565b840191505092915050565b6000608082019050615658600083018761370c565b615665602083018661370c565b6156726040830185613736565b8181036060830152615684818461560a565b905095945050505050565b60008151905061569e81613536565b92915050565b6000602082840312156156ba576156b9613500565b5b60006156c88482850161568f565b91505092915050565b7f4e487b7100000000000000000000000000000000000000000000000000000000600052603160045260246000fdfea26469706673582212202f80c0c8018afd4ad271a9883e7f2007841ba68570ff488342aadc4d9b782f4764736f6c63430008130033",
  "linkReferences": {},
  "deployedLinkReferences": {}
}