{
  "_format": "hh-sol-artifact-1",
  "contractName": "SocialWeb3",
  "sourceName": "contracts/SocialWeb3.sol",
  "abi": [
    {
      "inputs": [],
      "stateMutability": "nonpayable",
      "type": "constructor"
    },
    {
      "anonymous": false,
      "inputs": [
        {
          "indexed": true,
          "internalType": "address",
          "name": "owner",
          "type": "address"
        },
        {
          "indexed": true,
          "internalType": "address",
          "name": "approved",
          "type": "address"
        },
        {
          "indexed": true,
          "internalType": "uint256",
          "name": "tokenId",
          "type": "uint256"
        }
      ],
      "name": "Approval",
      "type": "event"
    },
    {
      "anonymous": false,
      "inputs": [
        {
          "indexed": true,
          "internalType": "address",
          "name": "owner",
          "type": "address"
        },
        {
          "indexed": true,
          "internalType": "address",
          "name": "operator",
          "type": "address"
        },
        {
          "indexed": false,
          "internalType": "bool",
          "name": "approved",
          "type": "bool"
        }
      ],
      "name": "ApprovalForAll",
      "type": "event"
    },
    {
      "anonymous": false,
      "inputs": [
        {
          "components": [
            {
              "internalType": "uint256",
              "name": "postId",
              "type": "uint256"
            },
            {
              "internalType": "string",
              "name": "handle",
              "type": "string"
            },
            {
              "internalType": "string",
              "name": "content",
              "type": "string"
            },
            {
              "internalType": "uint256",
              "name": "timestamp",
              "type": "uint256"
            }
          ],
          "indexed": false,
          "internalType": "struct SocialWeb3.Post",
          "name": "post",
          "type": "tuple"
        }
      ],
      "name": "CreatePost",
      "type": "event"
    },
    {
      "anonymous": false,
      "inputs": [
        {
          "components": [
            {
              "internalType": "address",
              "name": "owner",
              "type": "address"
            },
            {
              "internalType": "string",
              "name": "handle",
              "type": "string"
            },
            {
              "internalType": "string",
              "name": "name",
              "type": "string"
            },
            {
              "internalType": "string",
              "name": "imageURI",
              "type": "string"
            },
            {
              "internalType": "string",
              "name": "bio",
              "type": "string"
            }
          ],
          "indexed": false,
          "internalType": "struct SocialWeb3.ProfileNFTData",
          "name": "profileNFTData",
          "type": "tuple"
        }
      ],
      "name": "CreateProfileNFT",
      "type": "event"
    },
    {
      "anonymous": false,
      "inputs": [
        {
          "indexed": true,
          "internalType": "address",
          "name": "previousOwner",
          "type": "address"
        },
        {
          "indexed": true,
          "internalType": "address",
          "name": "newOwner",
          "type": "address"
        }
      ],
      "name": "OwnershipTransferred",
      "type": "event"
    },
    {
      "anonymous": false,
      "inputs": [
        {
          "indexed": true,
          "internalType": "address",
          "name": "from",
          "type": "address"
        },
        {
          "indexed": true,
          "internalType": "address",
          "name": "to",
          "type": "address"
        },
        {
          "indexed": true,
          "internalType": "uint256",
          "name": "tokenId",
          "type": "uint256"
        }
      ],
      "name": "Transfer",
      "type": "event"
    },
    {
      "anonymous": false,
      "inputs": [
        {
          "indexed": false,
          "internalType": "uint256",
          "name": "profileId",
          "type": "uint256"
        },
        {
          "components": [
            {
              "internalType": "address",
              "name": "owner",
              "type": "address"
            },
            {
              "internalType": "string",
              "name": "handle",
              "type": "string"
            },
            {
              "internalType": "string",
              "name": "name",
              "type": "string"
            },
            {
              "internalType": "string",
              "name": "imageURI",
              "type": "string"
            },
            {
              "internalType": "string",
              "name": "bio",
              "type": "string"
            }
          ],
          "indexed": false,
          "internalType": "struct SocialWeb3.ProfileNFTData",
          "name": "profileData",
          "type": "tuple"
        }
      ],
      "name": "UpdateProfile",
      "type": "event"
    },
    {
      "inputs": [
        {
          "internalType": "address",
          "name": "to",
          "type": "address"
        },
        {
          "internalType": "uint256",
          "name": "tokenId",
          "type": "uint256"
        }
      ],
      "name": "approve",
      "outputs": [],
      "stateMutability": "nonpayable",
      "type": "function"
    },
    {
      "inputs": [
        {
          "internalType": "address",
          "name": "owner",
          "type": "address"
        }
      ],
      "name": "balanceOf",
      "outputs": [
        {
          "internalType": "uint256",
          "name": "",
          "type": "uint256"
        }
      ],
      "stateMutability": "view",
      "type": "function"
    },
    {
      "inputs": [
        {
          "internalType": "string",
          "name": "_handle",
          "type": "string"
        },
        {
          "internalType": "string",
          "name": "_content",
          "type": "string"
        }
      ],
      "name": "createPost",
      "outputs": [],
      "stateMutability": "nonpayable",
      "type": "function"
    },
    {
      "inputs": [
        {
          "components": [
            {
              "internalType": "address",
              "name": "owner",
              "type": "address"
            },
            {
              "internalType": "string",
              "name": "handle",
              "type": "string"
            },
            {
              "internalType": "string",
              "name": "name",
              "type": "string"
            },
            {
              "internalType": "string",
              "name": "imageURI",
              "type": "string"
            },
            {
              "internalType": "string",
              "name": "bio",
              "type": "string"
            }
          ],
          "internalType": "struct SocialWeb3.ProfileNFTData",
          "name": "_profileNFTData",
          "type": "tuple"
        }
      ],
      "name": "createProfileNFT",
      "outputs": [],
      "stateMutability": "nonpayable",
      "type": "function"
    },
    {
      "inputs": [
        {
          "internalType": "uint256",
          "name": "tokenId",
          "type": "uint256"
        }
      ],
      "name": "getApproved",
      "outputs": [
        {
          "internalType": "address",
          "name": "",
          "type": "address"
        }
      ],
      "stateMutability": "view",
      "type": "function"
    },
    {
      "inputs": [
        {
          "internalType": "uint256",
          "name": "_postId",
          "type": "uint256"
        }
      ],
      "name": "getPost",
      "outputs": [
        {
          "components": [
            {
              "internalType": "uint256",
              "name": "postId",
              "type": "uint256"
            },
            {
              "internalType": "string",
              "name": "handle",
              "type": "string"
            },
            {
              "internalType": "string",
              "name": "content",
              "type": "string"
            },
            {
              "internalType": "uint256",
              "name": "timestamp",
              "type": "uint256"
            }
          ],
          "internalType": "struct SocialWeb3.Post",
          "name": "",
          "type": "tuple"
        }
      ],
      "stateMutability": "view",
      "type": "function"
    },
    {
      "inputs": [
        {
          "internalType": "uint256",
          "name": "_number",
          "type": "uint256"
        }
      ],
      "name": "getPostWithNumber",
      "outputs": [
        {
          "components": [
            {
              "internalType": "uint256",
              "name": "postId",
              "type": "uint256"
            },
            {
              "internalType": "string",
              "name": "handle",
              "type": "string"
            },
            {
              "internalType": "string",
              "name": "content",
              "type": "string"
            },
            {
              "internalType": "uint256",
              "name": "timestamp",
              "type": "uint256"
            }
          ],
          "internalType": "struct SocialWeb3.Post[]",
          "name": "",
          "type": "tuple[]"
        }
      ],
      "stateMutability": "view",
      "type": "function"
    },
    {
      "inputs": [
        {
          "internalType": "uint256",
          "name": "_profileId",
          "type": "uint256"
        }
      ],
      "name": "getProfileNFTData",
      "outputs": [
        {
          "components": [
            {
              "internalType": "address",
              "name": "owner",
              "type": "address"
            },
            {
              "internalType": "string",
              "name": "handle",
              "type": "string"
            },
            {
              "internalType": "string",
              "name": "name",
              "type": "string"
            },
            {
              "internalType": "string",
              "name": "imageURI",
              "type": "string"
            },
            {
              "internalType": "string",
              "name": "bio",
              "type": "string"
            }
          ],
          "internalType": "struct SocialWeb3.ProfileNFTData",
          "name": "",
          "type": "tuple"
        }
      ],
      "stateMutability": "view",
      "type": "function"
    },
    {
      "inputs": [
        {
          "internalType": "string",
          "name": "_handle",
          "type": "string"
        }
      ],
      "name": "getProfilePosts",
      "outputs": [
        {
          "components": [
            {
              "internalType": "uint256",
              "name": "postId",
              "type": "uint256"
            },
            {
              "internalType": "string",
              "name": "handle",
              "type": "string"
            },
            {
              "internalType": "string",
              "name": "content",
              "type": "string"
            },
            {
              "internalType": "uint256",
              "name": "timestamp",
              "type": "uint256"
            }
          ],
          "internalType": "struct SocialWeb3.Post[]",
          "name": "",
          "type": "tuple[]"
        }
      ],
      "stateMutability": "view",
      "type": "function"
    },
    {
      "inputs": [
        {
          "internalType": "address",
          "name": "_owner",
          "type": "address"
        }
      ],
      "name": "getUserHandles",
      "outputs": [
        {
          "internalType": "string[]",
          "name": "",
          "type": "string[]"
        }
      ],
      "stateMutability": "view",
      "type": "function"
    },
    {
      "inputs": [
        {
          "internalType": "address",
          "name": "_user",
          "type": "address"
        }
      ],
      "name": "getUserProfiles",
      "outputs": [
        {
          "internalType": "uint256[]",
          "name": "",
          "type": "uint256[]"
        }
      ],
      "stateMutability": "view",
      "type": "function"
    },
    {
      "inputs": [
        {
          "internalType": "address",
          "name": "owner",
          "type": "address"
        },
        {
          "internalType": "address",
          "name": "operator",
          "type": "address"
        }
      ],
      "name": "isApprovedForAll",
      "outputs": [
        {
          "internalType": "bool",
          "name": "",
          "type": "bool"
        }
      ],
      "stateMutability": "view",
      "type": "function"
    },
    {
      "inputs": [],
      "name": "name",
      "outputs": [
        {
          "internalType": "string",
          "name": "",
          "type": "string"
        }
      ],
      "stateMutability": "view",
      "type": "function"
    },
    {
      "inputs": [],
      "name": "owner",
      "outputs": [
        {
          "internalType": "address",
          "name": "",
          "type": "address"
        }
      ],
      "stateMutability": "view",
      "type": "function"
    },
    {
      "inputs": [
        {
          "internalType": "uint256",
          "name": "tokenId",
          "type": "uint256"
        }
      ],
      "name": "ownerOf",
      "outputs": [
        {
          "internalType": "address",
          "name": "",
          "type": "address"
        }
      ],
      "stateMutability": "view",
      "type": "function"
    },
    {
      "inputs": [],
      "name": "postId",
      "outputs": [
        {
          "internalType": "uint256",
          "name": "",
          "type": "uint256"
        }
      ],
      "stateMutability": "view",
      "type": "function"
    },
    {
      "inputs": [],
      "name": "profileId",
      "outputs": [
        {
          "internalType": "uint256",
          "name": "",
          "type": "uint256"
        }
      ],
      "stateMutability": "view",
      "type": "function"
    },
    {
      "inputs": [],
      "name": "renounceOwnership",
      "outputs": [],
      "stateMutability": "nonpayable",
      "type": "function"
    },
    {
      "inputs": [
        {
          "internalType": "address",
          "name": "from",
          "type": "address"
        },
        {
          "internalType": "address",
          "name": "to",
          "type": "address"
        },
        {
          "internalType": "uint256",
          "name": "tokenId",
          "type": "uint256"
        }
      ],
      "name": "safeTransferFrom",
      "outputs": [],
      "stateMutability": "nonpayable",
      "type": "function"
    },
    {
      "inputs": [
        {
          "internalType": "address",
          "name": "from",
          "type": "address"
        },
        {
          "internalType": "address",
          "name": "to",
          "type": "address"
        },
        {
          "internalType": "uint256",
          "name": "tokenId",
          "type": "uint256"
        },
        {
          "internalType": "bytes",
          "name": "data",
          "type": "bytes"
        }
      ],
      "name": "safeTransferFrom",
      "outputs": [],
      "stateMutability": "nonpayable",
      "type": "function"
    },
    {
      "inputs": [
        {
          "internalType": "address",
          "name": "operator",
          "type": "address"
        },
        {
          "internalType": "bool",
          "name": "approved",
          "type": "bool"
        }
      ],
      "name": "setApprovalForAll",
      "outputs": [],
      "stateMutability": "nonpayable",
      "type": "function"
    },
    {
      "inputs": [
        {
          "internalType": "bytes4",
          "name": "interfaceId",
          "type": "bytes4"
        }
      ],
      "name": "supportsInterface",
      "outputs": [
        {
          "internalType": "bool",
          "name": "",
          "type": "bool"
        }
      ],
      "stateMutability": "view",
      "type": "function"
    },
    {
      "inputs": [],
      "name": "symbol",
      "outputs": [
        {
          "internalType": "string",
          "name": "",
          "type": "string"
        }
      ],
      "stateMutability": "view",
      "type": "function"
    },
    {
      "inputs": [
        {
          "internalType": "uint256",
          "name": "index",
          "type": "uint256"
        }
      ],
      "name": "tokenByIndex",
      "outputs": [
        {
          "internalType": "uint256",
          "name": "",
          "type": "uint256"
        }
      ],
      "stateMutability": "view",
      "type": "function"
    },
    {
      "inputs": [
        {
          "internalType": "address",
          "name": "owner",
          "type": "address"
        },
        {
          "internalType": "uint256",
          "name": "index",
          "type": "uint256"
        }
      ],
      "name": "tokenOfOwnerByIndex",
      "outputs": [
        {
          "internalType": "uint256",
          "name": "",
          "type": "uint256"
        }
      ],
      "stateMutability": "view",
      "type": "function"
    },
    {
      "inputs": [
        {
          "internalType": "uint256",
          "name": "tokenId",
          "type": "uint256"
        }
      ],
      "name": "tokenURI",
      "outputs": [
        {
          "internalType": "string",
          "name": "",
          "type": "string"
        }
      ],
      "stateMutability": "view",
      "type": "function"
    },
    {
      "inputs": [],
      "name": "totalSupply",
      "outputs": [
        {
          "internalType": "uint256",
          "name": "",
          "type": "uint256"
        }
      ],
      "stateMutability": "view",
      "type": "function"
    },
    {
      "inputs": [
        {
          "internalType": "address",
          "name": "from",
          "type": "address"
        },
        {
          "internalType": "address",
          "name": "to",
          "type": "address"
        },
        {
          "internalType": "uint256",
          "name": "tokenId",
          "type": "uint256"
        }
      ],
      "name": "transferFrom",
      "outputs": [],
      "stateMutability": "nonpayable",
      "type": "function"
    },
    {
      "inputs": [
        {
          "internalType": "address",
          "name": "newOwner",
          "type": "address"
        }
      ],
      "name": "transferOwnership",
      "outputs": [],
      "stateMutability": "nonpayable",
      "type": "function"
    },
    {
      "inputs": [
        {
          "internalType": "uint256",
          "name": "_profileId",
          "type": "uint256"
        },
        {
          "components": [
            {
              "internalType": "address",
              "name": "owner",
              "type": "address"
            },
            {
              "internalType": "string",
              "name": "handle",
              "type": "string"
            },
            {
              "internalType": "string",
              "name": "name",
              "type": "string"
            },
            {
              "internalType": "string",
              "name": "imageURI",
              "type": "string"
            },
            {
              "internalType": "string",
              "name": "bio",
              "type": "string"
            }
          ],
          "internalType": "struct SocialWeb3.ProfileNFTData",
          "name": "_newProfileData",
          "type": "tuple"
        }
      ],
      "name": "updateProfile",
      "outputs": [],
      "stateMutability": "nonpayable",
      "type": "function"
    }
  ],
  "bytecode": "0x60806040523480156200001157600080fd5b506040518060400160405280600a81526020017f536f6369616c57656233000000000000000000000000000000000000000000008152506040518060400160405280600381526020017f53573300000000000000000000000000000000000000000000000000000000008152506200009e62000092620000ca60201b60201c565b620000d260201b60201c565b8160019081620000af919062000410565b508060029081620000c1919062000410565b505050620004f7565b600033905090565b60008060009054906101000a900473ffffffffffffffffffffffffffffffffffffffff169050816000806101000a81548173ffffffffffffffffffffffffffffffffffffffff021916908373ffffffffffffffffffffffffffffffffffffffff1602179055508173ffffffffffffffffffffffffffffffffffffffff168173ffffffffffffffffffffffffffffffffffffffff167f8be0079c531659141344cd1fd0a4f28419497f9722a3daafe3b4186f6b6457e060405160405180910390a35050565b600081519050919050565b7f4e487b7100000000000000000000000000000000000000000000000000000000600052604160045260246000fd5b7f4e487b7100000000000000000000000000000000000000000000000000000000600052602260045260246000fd5b600060028204905060018216806200021857607f821691505b6020821081036200022e576200022d620001d0565b5b50919050565b60008190508160005260206000209050919050565b60006020601f8301049050919050565b600082821b905092915050565b600060088302620002987fffffffffffffffffffffffffffffffffffffffffffffffffffffffffffffffff8262000259565b620002a4868362000259565b95508019841693508086168417925050509392505050565b6000819050919050565b6000819050919050565b6000620002f1620002eb620002e584620002bc565b620002c6565b620002bc565b9050919050565b6000819050919050565b6200030d83620002d0565b620003256200031c82620002f8565b84845462000266565b825550505050565b600090565b6200033c6200032d565b6200034981848462000302565b505050565b5b8181101562000371576200036560008262000332565b6001810190506200034f565b5050565b601f821115620003c0576200038a8162000234565b620003958462000249565b81016020851015620003a5578190505b620003bd620003b48562000249565b8301826200034e565b50505b505050565b600082821c905092915050565b6000620003e560001984600802620003c5565b1980831691505092915050565b6000620004008383620003d2565b9150826002028217905092915050565b6200041b8262000196565b67ffffffffffffffff811115620004375762000436620001a1565b5b620004438254620001ff565b6200045082828562000375565b600060209050601f83116001811462000488576000841562000473578287015190505b6200047f8582620003f2565b865550620004ef565b601f198416620004988662000234565b60005b82811015620004c2578489015182556001820191506020850194506020810190506200049b565b86831015620004e25784890151620004de601f891682620003d2565b8355505b6001600288020188555050505b505050505050565b61542c80620005076000396000f3fe608060405234801561001057600080fd5b50600436106101da5760003560e01c80635dd4dff41161010457806395d89b41116100a2578063c87b56dd11610071578063c87b56dd146105a1578063e563f778146105d1578063e985e9c5146105ed578063f2fde38b1461061d576101da565b806395d89b411461051b5780639b85b1f114610539578063a22cb46514610569578063b88d4fde14610585576101da565b806370a08231116100de57806370a0823114610493578063715018a6146104c357806380985a87146104cd5780638da5cb5b146104fd576101da565b80635dd4dff41461041557806360a0ecda146104455780636352211e14610463576101da565b80632d6d852f1161017c57806342842e0e1161014b57806342842e0e146103695780634f6ccce71461038557806354ebb999146103b55780635cafa539146103e5576101da565b80632d6d852f146102d15780632f745c59146102ed578063392338f51461031d57806340731c2414610339576101da565b806308386eba116101b857806308386eba1461025d578063095ea7b31461027b57806318160ddd1461029757806323b872dd146102b5576101da565b806301ffc9a7146101df57806306fdde031461020f578063081812fc1461022d575b600080fd5b6101f960048036038101906101f491906132a2565b610639565b60405161020691906132ea565b60405180910390f35b6102176106b3565b6040516102249190613395565b60405180910390f35b610247600480360381019061024291906133ed565b610745565b604051610254919061345b565b60405180910390f35b61026561078b565b6040516102729190613485565b60405180910390f35b610295600480360381019061029091906134cc565b610791565b005b61029f6108a8565b6040516102ac9190613485565b60405180910390f35b6102cf60048036038101906102ca919061350c565b6108b5565b005b6102eb60048036038101906102e69190613583565b610915565b005b610307600480360381019061030291906134cc565b61097d565b6040516103149190613485565b60405180910390f35b61033760048036038101906103329190613644565b610a22565b005b610353600480360381019061034e91906133ed565b610c48565b6040516103609190613788565b60405180910390f35b610383600480360381019061037e919061350c565b610dad565b005b61039f600480360381019061039a91906133ed565b610dcd565b6040516103ac9190613485565b60405180910390f35b6103cf60048036038101906103ca91906133ed565b610e3e565b6040516103dc91906138d6565b60405180910390f35b6103ff60048036038101906103fa91906138f8565b611050565b60405161040c91906138d6565b60405180910390f35b61042f600480360381019061042a9190613945565b6112ac565b60405161043c9190613a21565b60405180910390f35b61044d611343565b60405161045a9190613485565b60405180910390f35b61047d600480360381019061047891906133ed565b611349565b60405161048a919061345b565b60405180910390f35b6104ad60048036038101906104a89190613945565b6113cf565b6040516104ba9190613485565b60405180910390f35b6104cb611486565b005b6104e760048036038101906104e29190613945565b61149a565b6040516104f49190613b05565b60405180910390f35b6105056115b2565b604051610512919061345b565b60405180910390f35b6105236115db565b6040516105309190613395565b60405180910390f35b610553600480360381019061054e91906133ed565b61166d565b6040516105609190613bc1565b60405180910390f35b610583600480360381019061057e9190613c0f565b611938565b005b61059f600480360381019061059a9190613d7f565b61194e565b005b6105bb60048036038101906105b691906133ed565b6119b0565b6040516105c89190613395565b60405180910390f35b6105eb60048036038101906105e69190613e02565b611a18565b005b61060760048036038101906106029190613e4b565b611cd5565b60405161061491906132ea565b60405180910390f35b61063760048036038101906106329190613945565b611d69565b005b60007f780e9d63000000000000000000000000000000000000000000000000000000007bffffffffffffffffffffffffffffffffffffffffffffffffffffffff1916827bffffffffffffffffffffffffffffffffffffffffffffffffffffffff191614806106ac57506106ab82611dec565b5b9050919050565b6060600180546106c290613eba565b80601f01602080910402602001604051908101604052809291908181526020018280546106ee90613eba565b801561073b5780601f106107105761010080835404028352916020019161073b565b820191906000526020600020905b81548152906001019060200180831161071e57829003601f168201915b5050505050905090565b600061075082611ece565b6005600083815260200190815260200160002060009054906101000a900473ffffffffffffffffffffffffffffffffffffffff169050919050565b600c5481565b600061079c82611349565b90508073ffffffffffffffffffffffffffffffffffffffff168373ffffffffffffffffffffffffffffffffffffffff160361080c576040517f08c379a000000000000000000000000000000000000000000000000000000000815260040161080390613f5d565b60405180910390fd5b8073ffffffffffffffffffffffffffffffffffffffff1661082b611f19565b73ffffffffffffffffffffffffffffffffffffffff16148061085a575061085981610854611f19565b611cd5565b5b610899576040517f08c379a000000000000000000000000000000000000000000000000000000000815260040161089090613fef565b60405180910390fd5b6108a38383611f21565b505050565b6000600980549050905090565b6108c66108c0611f19565b82611fda565b610905576040517f08c379a00000000000000000000000000000000000000000000000000000000081526004016108fc90614081565b60405180910390fd5b61091083838361206f565b505050565b61091d612368565b8060106000848152602001908152602001600020818161093d919061451f565b9050507f2af2668216c13797f987f500352b5dcccb7f93d074b60a9ea347afb160cfed9e828260405161097192919061469e565b60405180910390a15050565b6000610988836113cf565b82106109c9576040517f08c379a00000000000000000000000000000000000000000000000000000000081526004016109c090614740565b60405180910390fd5b600760008473ffffffffffffffffffffffffffffffffffffffff1673ffffffffffffffffffffffffffffffffffffffff168152602001908152602001600020600083815260200190815260200160002054905092915050565b838360118282604051610a36929190614790565b908152602001604051809103902060009054906101000a900460ff16610a91576040517f08c379a0000000000000000000000000000000000000000000000000000000008152600401610a88906147f5565b60405180910390fd5b600d6000815480929190610aa490614844565b91905055506040518060800160405280600d54815260200187878080601f016020809104026020016040519081016040528093929190818152602001838380828437600081840152601f19601f82011690508083019250505050505050815260200185858080601f016020809104026020016040519081016040528093929190818152602001838380828437600081840152601f19601f8201169050808301925050505050505081526020014281525060126000600d548152602001908152602001600020600082015181600001556020820151816001019081610b88919061488c565b506040820151816002019081610b9e919061488c565b506060820151816003015590505060138686604051610bbe929190614790565b9081526020016040518091039020600d5490806001815401808255809150506001900390600052602060002001600090919091909150557f104af12493094a08a9af15004754171fd42e502f3cffec40976bb4e6ecd1ae8a60126000600d548152602001908152602001600020604051610c389190614a93565b60405180910390a1505050505050565b610c506131c9565b6012600083815260200190815260200160002060405180608001604052908160008201548152602001600182018054610c8890613eba565b80601f0160208091040260200160405190810160405280929190818152602001828054610cb490613eba565b8015610d015780601f10610cd657610100808354040283529160200191610d01565b820191906000526020600020905b815481529060010190602001808311610ce457829003601f168201915b50505050508152602001600282018054610d1a90613eba565b80601f0160208091040260200160405190810160405280929190818152602001828054610d4690613eba565b8015610d935780601f10610d6857610100808354040283529160200191610d93565b820191906000526020600020905b815481529060010190602001808311610d7657829003601f168201915b505050505081526020016003820154815250509050919050565b610dc88383836040518060200160405280600081525061194e565b505050565b6000610dd76108a8565b8210610e18576040517f08c379a0000000000000000000000000000000000000000000000000000000008152600401610e0f90614b27565b60405180910390fd5b60098281548110610e2c57610e2b614b47565b5b90600052602060002001549050919050565b60606000600a67ffffffffffffffff811115610e5d57610e5c613c54565b5b604051908082528060200260200182016040528015610e9657816020015b610e836131c9565b815260200190600190039081610e7b5790505b5090506000600190505b600a811161104657601260008286610eb89190614b76565b815260200190815260200160002060405180608001604052908160008201548152602001600182018054610eeb90613eba565b80601f0160208091040260200160405190810160405280929190818152602001828054610f1790613eba565b8015610f645780601f10610f3957610100808354040283529160200191610f64565b820191906000526020600020905b815481529060010190602001808311610f4757829003601f168201915b50505050508152602001600282018054610f7d90613eba565b80601f0160208091040260200160405190810160405280929190818152602001828054610fa990613eba565b8015610ff65780601f10610fcb57610100808354040283529160200191610ff6565b820191906000526020600020905b815481529060010190602001808311610fd957829003601f168201915b50505050508152602001600382015481525050826001836110179190614baa565b8151811061102857611027614b47565b5b6020026020010181905250808061103e90614844565b915050610ea0565b5080915050919050565b6060600060138484604051611066929190614790565b908152602001604051809103902080549050905060008167ffffffffffffffff81111561109657611095613c54565b5b6040519080825280602002602001820160405280156110cf57816020015b6110bc6131c9565b8152602001906001900390816110b45790505b50905060005b828110156112a05760126000601388886040516110f3929190614790565b9081526020016040518091039020838154811061111357611112614b47565b5b906000526020600020015481526020019081526020016000206040518060800160405290816000820154815260200160018201805461115190613eba565b80601f016020809104026020016040519081016040528092919081815260200182805461117d90613eba565b80156111ca5780601f1061119f576101008083540402835291602001916111ca565b820191906000526020600020905b8154815290600101906020018083116111ad57829003601f168201915b505050505081526020016002820180546111e390613eba565b80601f016020809104026020016040519081016040528092919081815260200182805461120f90613eba565b801561125c5780601f106112315761010080835404028352916020019161125c565b820191906000526020600020905b81548152906001019060200180831161123f57829003601f168201915b5050505050815260200160038201548152505082828151811061128257611281614b47565b5b6020026020010181905250808061129890614844565b9150506110d5565b50809250505092915050565b6060600e60008373ffffffffffffffffffffffffffffffffffffffff1673ffffffffffffffffffffffffffffffffffffffff16815260200190815260200160002080548060200260200160405190810160405280929190818152602001828054801561133757602002820191906000526020600020905b815481526020019060010190808311611323575b50505050509050919050565b600d5481565b600080611355836123e6565b9050600073ffffffffffffffffffffffffffffffffffffffff168173ffffffffffffffffffffffffffffffffffffffff16036113c6576040517f08c379a00000000000000000000000000000000000000000000000000000000081526004016113bd90614c2a565b60405180910390fd5b80915050919050565b60008073ffffffffffffffffffffffffffffffffffffffff168273ffffffffffffffffffffffffffffffffffffffff160361143f576040517f08c379a000000000000000000000000000000000000000000000000000000000815260040161143690614cbc565b60405180910390fd5b600460008373ffffffffffffffffffffffffffffffffffffffff1673ffffffffffffffffffffffffffffffffffffffff168152602001908152602001600020549050919050565b61148e612368565b6114986000612423565b565b6060600f60008373ffffffffffffffffffffffffffffffffffffffff1673ffffffffffffffffffffffffffffffffffffffff168152602001908152602001600020805480602002602001604051908101604052809291908181526020016000905b828210156115a757838290600052602060002001805461151a90613eba565b80601f016020809104026020016040519081016040528092919081815260200182805461154690613eba565b80156115935780601f1061156857610100808354040283529160200191611593565b820191906000526020600020905b81548152906001019060200180831161157657829003601f168201915b5050505050815260200190600101906114fb565b505050509050919050565b60008060009054906101000a900473ffffffffffffffffffffffffffffffffffffffff16905090565b6060600280546115ea90613eba565b80601f016020809104026020016040519081016040528092919081815260200182805461161690613eba565b80156116635780601f1061163857610100808354040283529160200191611663565b820191906000526020600020905b81548152906001019060200180831161164657829003601f168201915b5050505050905090565b6116756131f1565b601060008381526020019081526020016000206040518060a00160405290816000820160009054906101000a900473ffffffffffffffffffffffffffffffffffffffff1673ffffffffffffffffffffffffffffffffffffffff1673ffffffffffffffffffffffffffffffffffffffff1681526020016001820180546116f990613eba565b80601f016020809104026020016040519081016040528092919081815260200182805461172590613eba565b80156117725780601f1061174757610100808354040283529160200191611772565b820191906000526020600020905b81548152906001019060200180831161175557829003601f168201915b5050505050815260200160028201805461178b90613eba565b80601f01602080910402602001604051908101604052809291908181526020018280546117b790613eba565b80156118045780601f106117d957610100808354040283529160200191611804565b820191906000526020600020905b8154815290600101906020018083116117e757829003601f168201915b5050505050815260200160038201805461181d90613eba565b80601f016020809104026020016040519081016040528092919081815260200182805461184990613eba565b80156118965780601f1061186b57610100808354040283529160200191611896565b820191906000526020600020905b81548152906001019060200180831161187957829003601f168201915b505050505081526020016004820180546118af90613eba565b80601f01602080910402602001604051908101604052809291908181526020018280546118db90613eba565b80156119285780601f106118fd57610100808354040283529160200191611928565b820191906000526020600020905b81548152906001019060200180831161190b57829003601f168201915b5050505050815250509050919050565b61194a611943611f19565b83836124e7565b5050565b61195f611959611f19565b83611fda565b61199e576040517f08c379a000000000000000000000000000000000000000000000000000000000815260040161199590614081565b60405180910390fd5b6119aa84848484612653565b50505050565b60606119bb82611ece565b60006119c56126af565b905060008151116119e55760405180602001604052806000815250611a10565b806119ef846126c6565b604051602001611a00929190614d0d565b6040516020818303038152906040525b915050919050565b808060200190611a289190614186565b60118282604051611a3a929190614790565b908152602001604051809103902060009054906101000a900460ff1615611a96576040517f08c379a0000000000000000000000000000000000000000000000000000000008152600401611a8d90614d7d565b60405180910390fd5b826000016020810190611aa99190613945565b3373ffffffffffffffffffffffffffffffffffffffff168173ffffffffffffffffffffffffffffffffffffffff1614611b17576040517f08c379a0000000000000000000000000000000000000000000000000000000008152600401611b0e90614de9565b60405180910390fd5b600c6000815480929190611b2a90614844565b91905055508360106000600c5481526020019081526020016000208181611b51919061451f565b905050600f60003373ffffffffffffffffffffffffffffffffffffffff1673ffffffffffffffffffffffffffffffffffffffff168152602001908152602001600020848060200190611ba39190614186565b90918060018154018082558091505060019003906000526020600020016000909192909192909192909192509182611bdc929190614396565b5060016011858060200190611bf19190614186565b604051611bff929190614790565b908152602001604051809103902060006101000a81548160ff021916908315150217905550611c3033600c54612794565b600e60003373ffffffffffffffffffffffffffffffffffffffff1673ffffffffffffffffffffffffffffffffffffffff168152602001908152602001600020600c5490806001815401808255809150506001900390600052602060002001600090919091909150557f68d89ba37b6b8d0b7cb139771c573485dd925fbb3007cfb62cb832bc2a24850a84604051611cc79190614e09565b60405180910390a150505050565b6000600660008473ffffffffffffffffffffffffffffffffffffffff1673ffffffffffffffffffffffffffffffffffffffff16815260200190815260200160002060008373ffffffffffffffffffffffffffffffffffffffff1673ffffffffffffffffffffffffffffffffffffffff16815260200190815260200160002060009054906101000a900460ff16905092915050565b611d71612368565b600073ffffffffffffffffffffffffffffffffffffffff168173ffffffffffffffffffffffffffffffffffffffff1603611de0576040517f08c379a0000000000000000000000000000000000000000000000000000000008152600401611dd790614e9d565b60405180910390fd5b611de981612423565b50565b60007f80ac58cd000000000000000000000000000000000000000000000000000000007bffffffffffffffffffffffffffffffffffffffffffffffffffffffff1916827bffffffffffffffffffffffffffffffffffffffffffffffffffffffff19161480611eb757507f5b5e139f000000000000000000000000000000000000000000000000000000007bffffffffffffffffffffffffffffffffffffffffffffffffffffffff1916827bffffffffffffffffffffffffffffffffffffffffffffffffffffffff1916145b80611ec75750611ec6826129b1565b5b9050919050565b611ed781612a1b565b611f16576040517f08c379a0000000000000000000000000000000000000000000000000000000008152600401611f0d90614c2a565b60405180910390fd5b50565b600033905090565b816005600083815260200190815260200160002060006101000a81548173ffffffffffffffffffffffffffffffffffffffff021916908373ffffffffffffffffffffffffffffffffffffffff160217905550808273ffffffffffffffffffffffffffffffffffffffff16611f9483611349565b73ffffffffffffffffffffffffffffffffffffffff167f8c5be1e5ebec7d5bd14f71427d1e84f3dd0314c0f7b2291e5b200ac8c7c3b92560405160405180910390a45050565b600080611fe683611349565b90508073ffffffffffffffffffffffffffffffffffffffff168473ffffffffffffffffffffffffffffffffffffffff16148061202857506120278185611cd5565b5b8061206657508373ffffffffffffffffffffffffffffffffffffffff1661204e84610745565b73ffffffffffffffffffffffffffffffffffffffff16145b91505092915050565b8273ffffffffffffffffffffffffffffffffffffffff1661208f82611349565b73ffffffffffffffffffffffffffffffffffffffff16146120e5576040517f08c379a00000000000000000000000000000000000000000000000000000000081526004016120dc90614f2f565b60405180910390fd5b600073ffffffffffffffffffffffffffffffffffffffff168273ffffffffffffffffffffffffffffffffffffffff1603612154576040517f08c379a000000000000000000000000000000000000000000000000000000000815260040161214b90614fc1565b60405180910390fd5b6121618383836001612a5c565b8273ffffffffffffffffffffffffffffffffffffffff1661218182611349565b73ffffffffffffffffffffffffffffffffffffffff16146121d7576040517f08c379a00000000000000000000000000000000000000000000000000000000081526004016121ce90614f2f565b60405180910390fd5b6005600082815260200190815260200160002060006101000a81549073ffffffffffffffffffffffffffffffffffffffff02191690556001600460008573ffffffffffffffffffffffffffffffffffffffff1673ffffffffffffffffffffffffffffffffffffffff168152602001908152602001600020600082825403925050819055506001600460008473ffffffffffffffffffffffffffffffffffffffff1673ffffffffffffffffffffffffffffffffffffffff16815260200190815260200160002060008282540192505081905550816003600083815260200190815260200160002060006101000a81548173ffffffffffffffffffffffffffffffffffffffff021916908373ffffffffffffffffffffffffffffffffffffffff160217905550808273ffffffffffffffffffffffffffffffffffffffff168473ffffffffffffffffffffffffffffffffffffffff167fddf252ad1be2c89b69c2b068fc378daa952ba7f163c4a11628f55a4df523b3ef60405160405180910390a46123638383836001612bba565b505050565b612370611f19565b73ffffffffffffffffffffffffffffffffffffffff1661238e6115b2565b73ffffffffffffffffffffffffffffffffffffffff16146123e4576040517f08c379a00000000000000000000000000000000000000000000000000000000081526004016123db9061502d565b60405180910390fd5b565b60006003600083815260200190815260200160002060009054906101000a900473ffffffffffffffffffffffffffffffffffffffff169050919050565b60008060009054906101000a900473ffffffffffffffffffffffffffffffffffffffff169050816000806101000a81548173ffffffffffffffffffffffffffffffffffffffff021916908373ffffffffffffffffffffffffffffffffffffffff1602179055508173ffffffffffffffffffffffffffffffffffffffff168173ffffffffffffffffffffffffffffffffffffffff167f8be0079c531659141344cd1fd0a4f28419497f9722a3daafe3b4186f6b6457e060405160405180910390a35050565b8173ffffffffffffffffffffffffffffffffffffffff168373ffffffffffffffffffffffffffffffffffffffff1603612555576040517f08c379a000000000000000000000000000000000000000000000000000000000815260040161254c90615099565b60405180910390fd5b80600660008573ffffffffffffffffffffffffffffffffffffffff1673ffffffffffffffffffffffffffffffffffffffff16815260200190815260200160002060008473ffffffffffffffffffffffffffffffffffffffff1673ffffffffffffffffffffffffffffffffffffffff16815260200190815260200160002060006101000a81548160ff0219169083151502179055508173ffffffffffffffffffffffffffffffffffffffff168373ffffffffffffffffffffffffffffffffffffffff167f17307eab39ab6107e8899845ad3d59bd9653f200f220920489ca2b5937696c318360405161264691906132ea565b60405180910390a3505050565b61265e84848461206f565b61266a84848484612bc0565b6126a9576040517f08c379a00000000000000000000000000000000000000000000000000000000081526004016126a09061512b565b60405180910390fd5b50505050565b606060405180602001604052806000815250905090565b6060600060016126d584612d47565b01905060008167ffffffffffffffff8111156126f4576126f3613c54565b5b6040519080825280601f01601f1916602001820160405280156127265781602001600182028036833780820191505090505b509050600082602001820190505b600115612789578080600190039150507f3031323334353637383961626364656600000000000000000000000000000000600a86061a8153600a858161277d5761277c61514b565b5b04945060008503612734575b819350505050919050565b600073ffffffffffffffffffffffffffffffffffffffff168273ffffffffffffffffffffffffffffffffffffffff1603612803576040517f08c379a00000000000000000000000000000000000000000000000000000000081526004016127fa906151c6565b60405180910390fd5b61280c81612a1b565b1561284c576040517f08c379a000000000000000000000000000000000000000000000000000000000815260040161284390615232565b60405180910390fd5b61285a600083836001612a5c565b61286381612a1b565b156128a3576040517f08c379a000000000000000000000000000000000000000000000000000000000815260040161289a90615232565b60405180910390fd5b6001600460008473ffffffffffffffffffffffffffffffffffffffff1673ffffffffffffffffffffffffffffffffffffffff16815260200190815260200160002060008282540192505081905550816003600083815260200190815260200160002060006101000a81548173ffffffffffffffffffffffffffffffffffffffff021916908373ffffffffffffffffffffffffffffffffffffffff160217905550808273ffffffffffffffffffffffffffffffffffffffff16600073ffffffffffffffffffffffffffffffffffffffff167fddf252ad1be2c89b69c2b068fc378daa952ba7f163c4a11628f55a4df523b3ef60405160405180910390a46129ad600083836001612bba565b5050565b60007f01ffc9a7000000000000000000000000000000000000000000000000000000007bffffffffffffffffffffffffffffffffffffffffffffffffffffffff1916827bffffffffffffffffffffffffffffffffffffffffffffffffffffffff1916149050919050565b60008073ffffffffffffffffffffffffffffffffffffffff16612a3d836123e6565b73ffffffffffffffffffffffffffffffffffffffff1614159050919050565b612a6884848484612e9a565b6001811115612aac576040517f08c379a0000000000000000000000000000000000000000000000000000000008152600401612aa3906152c4565b60405180910390fd5b6000829050600073ffffffffffffffffffffffffffffffffffffffff168573ffffffffffffffffffffffffffffffffffffffff1603612af357612aee81612ea0565b612b32565b8373ffffffffffffffffffffffffffffffffffffffff168573ffffffffffffffffffffffffffffffffffffffff1614612b3157612b308582612ee9565b5b5b600073ffffffffffffffffffffffffffffffffffffffff168473ffffffffffffffffffffffffffffffffffffffff1603612b7457612b6f81613056565b612bb3565b8473ffffffffffffffffffffffffffffffffffffffff168473ffffffffffffffffffffffffffffffffffffffff1614612bb257612bb18482613127565b5b5b5050505050565b50505050565b6000612be18473ffffffffffffffffffffffffffffffffffffffff166131a6565b15612d3a578373ffffffffffffffffffffffffffffffffffffffff1663150b7a02612c0a611f19565b8786866040518563ffffffff1660e01b8152600401612c2c9493929190615339565b6020604051808303816000875af1925050508015612c6857506040513d601f19601f82011682018060405250810190612c65919061539a565b60015b612cea573d8060008114612c98576040519150601f19603f3d011682016040523d82523d6000602084013e612c9d565b606091505b506000815103612ce2576040517f08c379a0000000000000000000000000000000000000000000000000000000008152600401612cd99061512b565b60405180910390fd5b805181602001fd5b63150b7a0260e01b7bffffffffffffffffffffffffffffffffffffffffffffffffffffffff1916817bffffffffffffffffffffffffffffffffffffffffffffffffffffffff191614915050612d3f565b600190505b949350505050565b600080600090507a184f03e93ff9f4daa797ed6e38ed64bf6a1f0100000000000000008310612da5577a184f03e93ff9f4daa797ed6e38ed64bf6a1f0100000000000000008381612d9b57612d9a61514b565b5b0492506040810190505b6d04ee2d6d415b85acef81000000008310612de2576d04ee2d6d415b85acef81000000008381612dd857612dd761514b565b5b0492506020810190505b662386f26fc100008310612e1157662386f26fc100008381612e0757612e0661514b565b5b0492506010810190505b6305f5e1008310612e3a576305f5e1008381612e3057612e2f61514b565b5b0492506008810190505b6127108310612e5f576127108381612e5557612e5461514b565b5b0492506004810190505b60648310612e825760648381612e7857612e7761514b565b5b0492506002810190505b600a8310612e91576001810190505b80915050919050565b50505050565b600980549050600a600083815260200190815260200160002081905550600981908060018154018082558091505060019003906000526020600020016000909190919091505550565b60006001612ef6846113cf565b612f009190614baa565b9050600060086000848152602001908152602001600020549050818114612fe5576000600760008673ffffffffffffffffffffffffffffffffffffffff1673ffffffffffffffffffffffffffffffffffffffff168152602001908152602001600020600084815260200190815260200160002054905080600760008773ffffffffffffffffffffffffffffffffffffffff1673ffffffffffffffffffffffffffffffffffffffff168152602001908152602001600020600084815260200190815260200160002081905550816008600083815260200190815260200160002081905550505b6008600084815260200190815260200160002060009055600760008573ffffffffffffffffffffffffffffffffffffffff1673ffffffffffffffffffffffffffffffffffffffff16815260200190815260200160002060008381526020019081526020016000206000905550505050565b6000600160098054905061306a9190614baa565b90506000600a600084815260200190815260200160002054905060006009838154811061309a57613099614b47565b5b9060005260206000200154905080600983815481106130bc576130bb614b47565b5b906000526020600020018190555081600a600083815260200190815260200160002081905550600a600085815260200190815260200160002060009055600980548061310b5761310a6153c7565b5b6001900381819060005260206000200160009055905550505050565b6000613132836113cf565b905081600760008573ffffffffffffffffffffffffffffffffffffffff1673ffffffffffffffffffffffffffffffffffffffff168152602001908152602001600020600083815260200190815260200160002081905550806008600084815260200190815260200160002081905550505050565b6000808273ffffffffffffffffffffffffffffffffffffffff163b119050919050565b6040518060800160405280600081526020016060815260200160608152602001600081525090565b6040518060a00160405280600073ffffffffffffffffffffffffffffffffffffffff168152602001606081526020016060815260200160608152602001606081525090565b6000604051905090565b600080fd5b600080fd5b60007fffffffff0000000000000000000000000000000000000000000000000000000082169050919050565b61327f8161324a565b811461328a57600080fd5b50565b60008135905061329c81613276565b92915050565b6000602082840312156132b8576132b7613240565b5b60006132c68482850161328d565b91505092915050565b60008115159050919050565b6132e4816132cf565b82525050565b60006020820190506132ff60008301846132db565b92915050565b600081519050919050565b600082825260208201905092915050565b60005b8381101561333f578082015181840152602081019050613324565b60008484015250505050565b6000601f19601f8301169050919050565b600061336782613305565b6133718185613310565b9350613381818560208601613321565b61338a8161334b565b840191505092915050565b600060208201905081810360008301526133af818461335c565b905092915050565b6000819050919050565b6133ca816133b7565b81146133d557600080fd5b50565b6000813590506133e7816133c1565b92915050565b60006020828403121561340357613402613240565b5b6000613411848285016133d8565b91505092915050565b600073ffffffffffffffffffffffffffffffffffffffff82169050919050565b60006134458261341a565b9050919050565b6134558161343a565b82525050565b6000602082019050613470600083018461344c565b92915050565b61347f816133b7565b82525050565b600060208201905061349a6000830184613476565b92915050565b6134a98161343a565b81146134b457600080fd5b50565b6000813590506134c6816134a0565b92915050565b600080604083850312156134e3576134e2613240565b5b60006134f1858286016134b7565b9250506020613502858286016133d8565b9150509250929050565b60008060006060848603121561352557613524613240565b5b6000613533868287016134b7565b9350506020613544868287016134b7565b9250506040613555868287016133d8565b9150509250925092565b600080fd5b600060a0828403121561357a5761357961355f565b5b81905092915050565b6000806040838503121561359a57613599613240565b5b60006135a8858286016133d8565b925050602083013567ffffffffffffffff8111156135c9576135c8613245565b5b6135d585828601613564565b9150509250929050565b600080fd5b600080fd5b600080fd5b60008083601f840112613604576136036135df565b5b8235905067ffffffffffffffff811115613621576136206135e4565b5b60208301915083600182028301111561363d5761363c6135e9565b5b9250929050565b6000806000806040858703121561365e5761365d613240565b5b600085013567ffffffffffffffff81111561367c5761367b613245565b5b613688878288016135ee565b9450945050602085013567ffffffffffffffff8111156136ab576136aa613245565b5b6136b7878288016135ee565b925092505092959194509250565b6136ce816133b7565b82525050565b600082825260208201905092915050565b60006136f082613305565b6136fa81856136d4565b935061370a818560208601613321565b6137138161334b565b840191505092915050565b600060808301600083015161373660008601826136c5565b506020830151848203602086015261374e82826136e5565b9150506040830151848203604086015261376882826136e5565b915050606083015161377d60608601826136c5565b508091505092915050565b600060208201905081810360008301526137a2818461371e565b905092915050565b600081519050919050565b600082825260208201905092915050565b6000819050602082019050919050565b60006080830160008301516137ee60008601826136c5565b506020830151848203602086015261380682826136e5565b9150506040830151848203604086015261382082826136e5565b915050606083015161383560608601826136c5565b508091505092915050565b600061384c83836137d6565b905092915050565b6000602082019050919050565b600061386c826137aa565b61387681856137b5565b935083602082028501613888856137c6565b8060005b858110156138c457848403895281516138a58582613840565b94506138b083613854565b925060208a0199505060018101905061388c565b50829750879550505050505092915050565b600060208201905081810360008301526138f08184613861565b905092915050565b6000806020838503121561390f5761390e613240565b5b600083013567ffffffffffffffff81111561392d5761392c613245565b5b613939858286016135ee565b92509250509250929050565b60006020828403121561395b5761395a613240565b5b6000613969848285016134b7565b91505092915050565b600081519050919050565b600082825260208201905092915050565b6000819050602082019050919050565b60006139aa83836136c5565b60208301905092915050565b6000602082019050919050565b60006139ce82613972565b6139d8818561397d565b93506139e38361398e565b8060005b83811015613a145781516139fb888261399e565b9750613a06836139b6565b9250506001810190506139e7565b5085935050505092915050565b60006020820190508181036000830152613a3b81846139c3565b905092915050565b600081519050919050565b600082825260208201905092915050565b6000819050602082019050919050565b6000613a7b83836136e5565b905092915050565b6000602082019050919050565b6000613a9b82613a43565b613aa58185613a4e565b935083602082028501613ab785613a5f565b8060005b85811015613af35784840389528151613ad48582613a6f565b9450613adf83613a83565b925060208a01995050600181019050613abb565b50829750879550505050505092915050565b60006020820190508181036000830152613b1f8184613a90565b905092915050565b613b308161343a565b82525050565b600060a083016000830151613b4e6000860182613b27565b5060208301518482036020860152613b6682826136e5565b91505060408301518482036040860152613b8082826136e5565b91505060608301518482036060860152613b9a82826136e5565b91505060808301518482036080860152613bb482826136e5565b9150508091505092915050565b60006020820190508181036000830152613bdb8184613b36565b905092915050565b613bec816132cf565b8114613bf757600080fd5b50565b600081359050613c0981613be3565b92915050565b60008060408385031215613c2657613c25613240565b5b6000613c34858286016134b7565b9250506020613c4585828601613bfa565b9150509250929050565b600080fd5b7f4e487b7100000000000000000000000000000000000000000000000000000000600052604160045260246000fd5b613c8c8261334b565b810181811067ffffffffffffffff82111715613cab57613caa613c54565b5b80604052505050565b6000613cbe613236565b9050613cca8282613c83565b919050565b600067ffffffffffffffff821115613cea57613ce9613c54565b5b613cf38261334b565b9050602081019050919050565b82818337600083830152505050565b6000613d22613d1d84613ccf565b613cb4565b905082815260208101848484011115613d3e57613d3d613c4f565b5b613d49848285613d00565b509392505050565b600082601f830112613d6657613d656135df565b5b8135613d76848260208601613d0f565b91505092915050565b60008060008060808587031215613d9957613d98613240565b5b6000613da7878288016134b7565b9450506020613db8878288016134b7565b9350506040613dc9878288016133d8565b925050606085013567ffffffffffffffff811115613dea57613de9613245565b5b613df687828801613d51565b91505092959194509250565b600060208284031215613e1857613e17613240565b5b600082013567ffffffffffffffff811115613e3657613e35613245565b5b613e4284828501613564565b91505092915050565b60008060408385031215613e6257613e61613240565b5b6000613e70858286016134b7565b9250506020613e81858286016134b7565b9150509250929050565b7f4e487b7100000000000000000000000000000000000000000000000000000000600052602260045260246000fd5b60006002820490506001821680613ed257607f821691505b602082108103613ee557613ee4613e8b565b5b50919050565b7f4552433732313a20617070726f76616c20746f2063757272656e74206f776e6560008201527f7200000000000000000000000000000000000000000000000000000000000000602082015250565b6000613f47602183613310565b9150613f5282613eeb565b604082019050919050565b60006020820190508181036000830152613f7681613f3a565b9050919050565b7f4552433732313a20617070726f76652063616c6c6572206973206e6f7420746f60008201527f6b656e206f776e6572206f7220617070726f76656420666f7220616c6c000000602082015250565b6000613fd9603d83613310565b9150613fe482613f7d565b604082019050919050565b6000602082019050818103600083015261400881613fcc565b9050919050565b7f4552433732313a2063616c6c6572206973206e6f7420746f6b656e206f776e6560008201527f72206f7220617070726f76656400000000000000000000000000000000000000602082015250565b600061406b602d83613310565b91506140768261400f565b604082019050919050565b6000602082019050818103600083015261409a8161405e565b9050919050565b600081356140ae816134a0565b80915050919050565b60008160001b9050919050565b600073ffffffffffffffffffffffffffffffffffffffff6140e4846140b7565b9350801983169250808416831791505092915050565b6000819050919050565b600061411f61411a6141158461341a565b6140fa565b61341a565b9050919050565b600061413182614104565b9050919050565b600061414382614126565b9050919050565b6000819050919050565b61415d82614138565b6141706141698261414a565b83546140c4565b8255505050565b600080fd5b600080fd5b600080fd5b600080833560016020038436030381126141a3576141a2614177565b5b80840192508235915067ffffffffffffffff8211156141c5576141c461417c565b5b6020830192506001820236038313156141e1576141e0614181565b5b509250929050565b600082905092915050565b60008190508160005260206000209050919050565b60006020601f8301049050919050565b600082821b905092915050565b6000600883026142567fffffffffffffffffffffffffffffffffffffffffffffffffffffffffffffffff82614219565b6142608683614219565b95508019841693508086168417925050509392505050565b600061429361428e614289846133b7565b6140fa565b6133b7565b9050919050565b6000819050919050565b6142ad83614278565b6142c16142b98261429a565b848454614226565b825550505050565b600090565b6142d66142c9565b6142e18184846142a4565b505050565b5b81811015614305576142fa6000826142ce565b6001810190506142e7565b5050565b601f82111561434a5761431b816141f4565b61432484614209565b81016020851015614333578190505b61434761433f85614209565b8301826142e6565b50505b505050565b600082821c905092915050565b600061436d6000198460080261434f565b1980831691505092915050565b6000614386838361435c565b9150826002028217905092915050565b6143a083836141e9565b67ffffffffffffffff8111156143b9576143b8613c54565b5b6143c38254613eba565b6143ce828285614309565b6000601f8311600181146143fd57600084156143eb578287013590505b6143f5858261437a565b86555061445d565b601f19841661440b866141f4565b60005b828110156144335784890135825560018201915060208501945060208101905061440e565b86831015614450578489013561444c601f89168261435c565b8355505b6001600288020188555050505b50505050505050565b614471838383614396565b505050565b600081016000830180614488816140a1565b90506144948184614154565b50505060018101602083016144a98185614186565b6144b4818386614466565b5050505060028101604083016144ca8185614186565b6144d5818386614466565b5050505060038101606083016144eb8185614186565b6144f6818386614466565b50505050600481016080830161450c8185614186565b614517818386614466565b505050505050565b6145298282614476565b5050565b600061453c60208401846134b7565b905092915050565b600080fd5b600080fd5b600080fd5b600080833560016020038436030381126145705761456f61454e565b5b83810192508235915060208301925067ffffffffffffffff82111561459857614597614544565b5b6001820236038313156145ae576145ad614549565b5b509250929050565b60006145c283856136d4565b93506145cf838584613d00565b6145d88361334b565b840190509392505050565b600060a083016145f6600084018461452d565b6146036000860182613b27565b506146116020840184614553565b85830360208701526146248382846145b6565b925050506146356040840184614553565b85830360408701526146488382846145b6565b925050506146596060840184614553565b858303606087015261466c8382846145b6565b9250505061467d6080840184614553565b85830360808701526146908382846145b6565b925050508091505092915050565b60006040820190506146b36000830185613476565b81810360208301526146c581846145e3565b90509392505050565b7f455243373231456e756d657261626c653a206f776e657220696e646578206f7560008201527f74206f6620626f756e6473000000000000000000000000000000000000000000602082015250565b600061472a602b83613310565b9150614735826146ce565b604082019050919050565b600060208201905081810360008301526147598161471d565b9050919050565b600081905092915050565b60006147778385614760565b9350614784838584613d00565b82840190509392505050565b600061479d82848661476b565b91508190509392505050565b7f48616e646c65206e6f7420666f756e6400000000000000000000000000000000600082015250565b60006147df601083613310565b91506147ea826147a9565b602082019050919050565b6000602082019050818103600083015261480e816147d2565b9050919050565b7f4e487b7100000000000000000000000000000000000000000000000000000000600052601160045260246000fd5b600061484f826133b7565b91507fffffffffffffffffffffffffffffffffffffffffffffffffffffffffffffffff820361488157614880614815565b5b600182019050919050565b61489582613305565b67ffffffffffffffff8111156148ae576148ad613c54565b5b6148b88254613eba565b6148c3828285614309565b600060209050601f8311600181146148f657600084156148e4578287015190505b6148ee858261437a565b865550614956565b601f198416614904866141f4565b60005b8281101561492c57848901518255600182019150602085019450602081019050614907565b868310156149495784890151614945601f89168261435c565b8355505b6001600288020188555050505b505050505050565b60008160001c9050919050565b6000819050919050565b60006149886149838361495e565b61496b565b9050919050565b6000815461499c81613eba565b6149a681866136d4565b945060018216600081146149c157600181146149d757614a0a565b60ff198316865281151560200286019350614a0a565b6149e0856141f4565b60005b83811015614a02578154818901526001820191506020810190506149e3565b808801955050505b50505092915050565b6000608083016000808401549050614a2a81614975565b614a3760008701826136c5565b50600184018583036020870152614a4e838261498f565b925050600284018583036040870152614a67838261498f565b92505060038401549050614a7a81614975565b614a8760608701826136c5565b50819250505092915050565b60006020820190508181036000830152614aad8184614a13565b905092915050565b7f455243373231456e756d657261626c653a20676c6f62616c20696e646578206f60008201527f7574206f6620626f756e64730000000000000000000000000000000000000000602082015250565b6000614b11602c83613310565b9150614b1c82614ab5565b604082019050919050565b60006020820190508181036000830152614b4081614b04565b9050919050565b7f4e487b7100000000000000000000000000000000000000000000000000000000600052603260045260246000fd5b6000614b81826133b7565b9150614b8c836133b7565b9250828201905080821115614ba457614ba3614815565b5b92915050565b6000614bb5826133b7565b9150614bc0836133b7565b9250828203905081811115614bd857614bd7614815565b5b92915050565b7f4552433732313a20696e76616c696420746f6b656e2049440000000000000000600082015250565b6000614c14601883613310565b9150614c1f82614bde565b602082019050919050565b60006020820190508181036000830152614c4381614c07565b9050919050565b7f4552433732313a2061646472657373207a65726f206973206e6f74206120766160008201527f6c6964206f776e65720000000000000000000000000000000000000000000000602082015250565b6000614ca6602983613310565b9150614cb182614c4a565b604082019050919050565b60006020820190508181036000830152614cd581614c99565b9050919050565b6000614ce782613305565b614cf18185614760565b9350614d01818560208601613321565b80840191505092915050565b6000614d198285614cdc565b9150614d258284614cdc565b91508190509392505050565b7f48616e646c6520616c7265616479206578697374730000000000000000000000600082015250565b6000614d67601583613310565b9150614d7282614d31565b602082019050919050565b60006020820190508181036000830152614d9681614d5a565b9050919050565b7f4f776e657220646966666572656e742066726f6d206d73672e73656e64657200600082015250565b6000614dd3601f83613310565b9150614dde82614d9d565b602082019050919050565b60006020820190508181036000830152614e0281614dc6565b9050919050565b60006020820190508181036000830152614e2381846145e3565b905092915050565b7f4f776e61626c653a206e6577206f776e657220697320746865207a65726f206160008201527f6464726573730000000000000000000000000000000000000000000000000000602082015250565b6000614e87602683613310565b9150614e9282614e2b565b604082019050919050565b60006020820190508181036000830152614eb681614e7a565b9050919050565b7f4552433732313a207472616e736665722066726f6d20696e636f72726563742060008201527f6f776e6572000000000000000000000000000000000000000000000000000000602082015250565b6000614f19602583613310565b9150614f2482614ebd565b604082019050919050565b60006020820190508181036000830152614f4881614f0c565b9050919050565b7f4552433732313a207472616e7366657220746f20746865207a65726f2061646460008201527f7265737300000000000000000000000000000000000000000000000000000000602082015250565b6000614fab602483613310565b9150614fb682614f4f565b604082019050919050565b60006020820190508181036000830152614fda81614f9e565b9050919050565b7f4f776e61626c653a2063616c6c6572206973206e6f7420746865206f776e6572600082015250565b6000615017602083613310565b915061502282614fe1565b602082019050919050565b600060208201905081810360008301526150468161500a565b9050919050565b7f4552433732313a20617070726f766520746f2063616c6c657200000000000000600082015250565b6000615083601983613310565b915061508e8261504d565b602082019050919050565b600060208201905081810360008301526150b281615076565b9050919050565b7f4552433732313a207472616e7366657220746f206e6f6e20455243373231526560008201527f63656976657220696d706c656d656e7465720000000000000000000000000000602082015250565b6000615115603283613310565b9150615120826150b9565b604082019050919050565b6000602082019050818103600083015261514481615108565b9050919050565b7f4e487b7100000000000000000000000000000000000000000000000000000000600052601260045260246000fd5b7f4552433732313a206d696e7420746f20746865207a65726f2061646472657373600082015250565b60006151b0602083613310565b91506151bb8261517a565b602082019050919050565b600060208201905081810360008301526151df816151a3565b9050919050565b7f4552433732313a20746f6b656e20616c7265616479206d696e74656400000000600082015250565b600061521c601c83613310565b9150615227826151e6565b602082019050919050565b6000602082019050818103600083015261524b8161520f565b9050919050565b7f455243373231456e756d657261626c653a20636f6e736563757469766520747260008201527f616e7366657273206e6f7420737570706f727465640000000000000000000000602082015250565b60006152ae603583613310565b91506152b982615252565b604082019050919050565b600060208201905081810360008301526152dd816152a1565b9050919050565b600081519050919050565b600082825260208201905092915050565b600061530b826152e4565b61531581856152ef565b9350615325818560208601613321565b61532e8161334b565b840191505092915050565b600060808201905061534e600083018761344c565b61535b602083018661344c565b6153686040830185613476565b818103606083015261537a8184615300565b905095945050505050565b60008151905061539481613276565b92915050565b6000602082840312156153b0576153af613240565b5b60006153be84828501615385565b91505092915050565b7f4e487b7100000000000000000000000000000000000000000000000000000000600052603160045260246000fdfea264697066735822122012de302d822a96c357308473dc7a2a39d5a5c45c27505666e84553289ada9c7e64736f6c63430008130033",
  "linkReferences": {},
  "deployedLinkReferences": {}
}